:1080000060B7002005A70000952D0100F1A6000033
:10801000F1A60000F1A60000F1A60000F1A6000004
:10802000000000000000000000000000C9A80000DF
:10803000F1A600000000000081A80000F1A60000E9
:1080400059AA000059AA000059AA000059AA000024
:1080500059AA000059AA000059AA000059AA000014
:1080600059AA000059AA000059AA000059AA000004
:1080700059AA000059AA000059AA000059AA0000F4
:1080800059AA000059AA000059AA000059AA0000E4
:1080900059AA000059AA000059AA000059AA0000D4
:1080A00059AA000059AA000059AA000059AA0000C4
:1080B00059AA000059AA000059AA000059AA0000B4
:1080C00059AA000059AA000059AA000059AA0000A4
:1080D00059AA000059AA000059AA000059AA000094
:1080E00059AA000059AA000059AA000059AA000084
:1080F00059AA000059AA000059AA000059AA000074
:1081000059AA000059AA000059AA000059AA000063
:1081100059AA000059AA000059AA000059AA000053
:1081200059AA000059AA000059AA000059AA000043
:1081300059AA000059AA000059AA000059AA000033
:1081400059AA000059AA000059AA000059AA000023
:0481500059AA000028
:1081540010F8012B11F8013B012A28BF9A42F7D0ED
:10816400D01A7047034611F8012B03F8012B002A9B
:10817400F9D17047034613F8012B002AFBD1181AD2
:108184000138704730B589B00321204A20480AF0ED
:108194002FFB05F049FE034640B11E4A01211C484D
:1081A4000AF02FFB4FF0FF3009B030BD04F046F861
:1081B400034608B1184AF1E7184D0321184A144838
:1081C40003AC0AF015FB0FCD0FC42B680125236007
:1081D4000222144B1449009503A804F019FD044627
:1081E40010B1124A0346D9E70321114A08480AF09C
:1081F400FFFA013404F00101002005F049FE0021DA
:108204004FF4004008F04AFCF3E700BFFC550100BE
:10821400CC5001001D560100385601009051010058
:108224005856010008520100105201006F56010017
:10823400955601002DE9F04F91B0009302F004032C
:108244000293C2F3C2030133840705460E46DDF8E8
:1082540068900392059340F0BB81041D30B1072957
:1082640009D86FF01B0011B0BDE8F08F01F00706CC
:10827400341DC6F10806009B4FF000084FF0040AB5
:10828400591E4FF0FF3347460193C3465346CDF87A
:1082940010800DB1009A22600598002800F3E88050
:1082A4009848009A824203D397488242C0F0E08003
:1082B400039AA4EB050E92074FEA9E0000F1038196
:1082C4000F2F00F2B180002D00F0058107F140026C
:1082D4000DEB020C019A0CF8200C0CF8102C0498ED
:1082E40001300490E7E07A285DD84B280ED847285F
:1082F40059D829282DD8252852D054D820287AD0C6
:108304002338D0F1000B4BEB000B74E04C382E28D3
:1083140049D8DFE800F07048484848484848484889
:1083240048484B484848484848484859484B4B599E
:108334005959704B6D487048184B184848827F4B08
:1083440048484B487F0000204FF0000B4FF0040AD0
:1083540038E001222A38C0B202FA00F010EA0E0F07
:1083640049D110F0625C2FD110EA020B43D0604671
:10837400013C5444B4FBFAF40AFB04F4002D61D02C
:10838400A3EB050CA444B4453FF66BAF002868D1B9
:10839400042B47D159F8043B2360042304342AE016
:1083A400019A013A01924FF0000B24E011F8010CFC
:1083B4006C2834D1002011F8023C83466C2BC5D1C3
:1083C4004FF0080A5346D3E709F1070929F00709D2
:1083D400073424F00704F9E802AB35B106982044C9
:1083E400B0423FF63EAFC4E900AB4FF0000B083497
:1083F4004FF0080A534611F8010F002878D0BBF15A
:10840400000F7FF470AF2528F5D14FF0010B019BCD
:10841400013301934FF0040AECE7584694E7002037
:108424008346A5E7082B02D06FF015001BE709F17E
:10843400070929F00709F9E80223C4E900230823FE
:108444000834D8E768B9042B02D109F10409A4E778
:10845400082BE9D109F1070929F0070909F10809ED
:10846400EDE7059A013A059259F8042B009210E7BA
:10847400039A900720D54FF0010CA4EB050E4FEAA8
:108484009E00BEF5007FCFD20F2FCDD8F5B107F1F6
:1084940040020DEB020E019AC0B20EF8200C0EF849
:1084A400102CBCF1000F3FF41AAF60F07F000EF8FF
:1084B400200C08F101080137C5F108024FF6DA7EF5
:1084C4000434069297E74FF0000CDAE7BCF1000F92
:1084D40001D00136EFE7029802360028EBD100986C
:1084E400CDE90631FFF746FEDDE906310644E2E751
:1084F400631BB3F5806F97D245B9A6F10804E01861
:10850400B1E600BFA04D0100206F0100029A9B0854
:1085140028602B709DF81030C2B1EB7085F8028092
:10852400B8F1000F05D0002208A8C5F1010C97424C
:108534000ED14FF0000AC5F101030DF1200901939A
:108544000DF1300B574512D1601B8CE66B70E5E7DB
:1085540010F8013B190608D504EB0C0EB64503F0E0
:108564007F033FF67EAE04F8013B0132DFE7B8F14A
:10857400000F03D099F90020002A17DB029BD3B126
:108584001AF80B2004F8012B0022019B98182044B0
:10859400B0423FF666AE99F80000009904F8010B6A
:1085A400204603920CF03FFB039A14440AF1010A9B
:1085B40009F10109C6E799F8002055F82230009323
:1085C400029B009845F82230FFF7D4FD421CDCE7FB
:1085D4006FF00D0047E600BF2DE9F04F97B000AFF4
:1085E400D7F880B03B62CBF3C0030446894690F8C9
:1085F40002A0FA62BB6141B9457800780AEB8000B9
:1086040020444D4517D8A0EB0409E378FB61BAF187
:10861400000F02D01BF0010F16D1FB6953BBFB6A9C
:108624001BB1494620463A6A98474D4628465C376E
:10863400BD46BDE8F08F461C3046FFF79BFD013078
:10864400304409F10109DCE7626823787A62FA6A46
:108654009900796104EB8301002A40F001810E4600
:108664004FF000084D4601EB0A094E454CD101EB91
:108674000A0610E01BF0020FD1D023789A007A6129
:10868400626804EB83017A62FA6A002A77D14D4664
:10869400904601EB0A061BF0050F0CBF02230123D1
:1086A400FB62FB6906EB430A0BF00203BB6256450F
:1086B400BCD016F8021B16F8013C54F82390AF4BBB
:1086C400994502D3AE4B994536D3BB69002B40D0B4
:1086D400786A09F056FA00283BD0E9468AB06A461F
:1086E400A84B53617B6AC2E906314FF400731384CB
:1086F400A54B42F8103F00234FF41251A34801F058
:10870400C9F8023DCD46D2E716F8013BF96254F8A8
:108714002300FFF72FFDD7F88430F96A01304BB1FD
:10872400D7F8883098453EBFD7F8843023F818002E
:1087340008F10108054498E7BB6923B1786A09F098
:1087440020FA0028C9D11BF0010F05D1FB6AED1AEC
:10875400ADE7BB6A002BAAD04846FFF70BFDD7F85C
:10876400843053B1D7F8883098453FBFD7F8842078
:10877400431C22F8183008F10108054497E7BAF1C0
:10878400000F73D01BF0040673D0D046002607F107
:10879400480052463B61B9620CF045FAB96A3B693C
:1087A40001EB0A02BA62FA69F9695200FA60BA6A1C
:1087B40002EB41023A610BF00202BA603A69B96A0B
:1087C4008A4258D162781BF0020F18BF00217A62E6
:1087D40008BF4FEA5801B2181BF0010FD2B240F0A3
:1087E4009F801BF0040F14BF40460020BB616270E1
:1087F400A070E17020463A6A7969FB6A9847051EC1
:10880400FFF614AFBB69414623707B6A3A6A637012
:10881400FB6984F802A0E37007F14800FB6A9847FB
:10882400B0F10008C0F2B4807B69A9EB0A01C91A4F
:10883400FB683A6AC91AD7E90A0398470028C0F2C4
:10884400A9804FF0000BA84408EB000507F1380A93
:10885400B34567D300213A6A0846FB6A9847E5E6C0
:1088640056464FF0000807F1380092E75646D046C6
:1088740096E7B04694E7BA6A12F8021B12F8015C54
:10888400BA6254F825003D4A904202D33C4A9042D1
:108894001ED3BA6932B1786A7B6009F072F97B68D9
:1088A40000288BD1BA6802BB08F1280207F1300C0A
:1088B40008F10100944407F1580208F1020852FA41
:1088C40080F00CF8101C5FFA88F800F8105C75E76B
:1088D400BA693AB1786A7B6009F053F97B68002879
:1088E4007FF46CAF1BF0010F09D006F1280207F1E9
:1088F4003000711C161806F8205CCEB25EE71BF03F
:10890400040F3FF45BAF08F1280207F1300008F1CF
:10891400010102EB000808F8105C5FFA81F84DE7EA
:10892400002063E71BF80A3054F8239087F83730A7
:10893400D7F88430FBB133F81B8001213A6AFB6A13
:1089440007F137009847002824DB0544B8F1000FED
:1089540006D14846FFF70EFC00F101081FFA88F81B
:10896400414648463A6AFB6A9847002812DB0544A8
:108974000BF1010B6CE7D7F88480DEE7A04D010012
:10898400206F0100D05601000400000114510100C1
:1089940045464BE6054649E6014B1860704700BF63
:1089A400F885002080B505460E461746984608F01F
:1089B40093F803460CF0E8F90446DFF818904246B1
:1089C40049F8003039463046A84754F8090001F008
:1089D400FFFE00BF080000002DE9F047058B0446A8
:1089E4002807904611D4022905F0070540F0CC80F1
:1089F400204609F069FB78B10138218B042811D88D
:108A0400DFE800F0C2106D85950001290CBF45F028
:108A1400100545F02005258388F31188BFF36F8F77
:108A2400BDE8F08701F0070AAA4500F0A5800027F9
:108A3400B9463E46A368002B00F0BC8041F0080113
:108A4400218388F31188BFF36F8FA168002900F098
:108A5400BA800D68002900F0B6803346524620469D
:108A6400D1F80480C047002D76D02B6829461D46D6
:108A7400F0E701F007035A1F012A1BD8002221F056
:108A84000701062B276889B2C4E9002209D13B46B5
:108A940003E0628B013262831B68002BF9D141F041
:108AA40002012046218309F00FFB00287AD041F00F
:108AB400200176E0042B0AD121F0070189B2204677
:108AC400218309F001FB10B141F020012183218BA6
:108AD40001F0070AAA454FD00027B946AAE723693F
:108AE40021F0070141F00601062DD3F800902183FF
:108AF4002DD1B9F1000F3FD041F00801218388F353
:108B04001188BFF36F8F20463949C84729E021F007
:108B14000701236941F0040189B2042DD3F80490BC
:108B24002183E6D000274FF0040A3E4682E721F075
:108B34000701236941F0050189B2052DD3F8089096
:108B44002183D6D000274FF0050A3E4672E700275E
:108B54004FF0060A3E466DE72B4687E7B9F1000F52
:108B6400D1D1EFF31188202383F31288BFF36F8FE1
:108B7400238B23F008032383258BEA062ED525F0C7
:108B84001003238305F007056669218B002EBFF6C9
:108B940070AF00232768C4E9003321F0070141F0D6
:108BA40001012183218B4FF0000901F0070AAA4536
:108BB4007FF440AF002F9CD041F00801218388F35B
:108BC4001188BFF36F8F002FC8D03D6839463346F4
:108BD4005246204609F0A4FA2F46F4E7AB067FF587
:108BE4001BAF25F02003238305F0070500E700BF32
:108BF4005121010010B530B90B480C4909F06FFB45
:108C04006FF0150010BD836833B90748084909F0AF
:108C140066FB6FF00400F5E71B6813B1BDE8104074
:108C240018471846EEE700BF2C5101008457010095
:108C34009557010010B530B90B480C4909F04FFBAA
:108C44006FF0150010BD836833B90748084909F06F
:108C540046FB6FF00400F5E75B6813B1BDE8104014
:108C640018471846EEE700BF2C5101008457010055
:108C74009557010070B508B101B132B90B480C49E0
:108C840009F02DFB6FF0150070BD84680CB1E56828
:108C940035B90648074909F022FB6FF00400F3E7F1
:108CA40041F8040BE368BDE8704018472C510100FB
:108CB400B35701009557010010B5044630B9104868
:108CC400104909F00CFB6FF0150010BD006830B9B5
:108CD4000B480D4909F003FB6FF00100F5E78368C9
:108CE4000BB11B6933B90648084909F0F8FA6FF06B
:108CF4000400EAE7616898470028E6D12060E4E7C9
:108D04002C510100DF570100F05701009557010075
:108D140070B51346044630B91048114909F0DFFA1A
:108D24006FF0150070BD006830B90C480D4909F0AA
:108D3400D6FA6FF00100F5E782680AB1956835B993
:108D44000648094909F0CBFA6FF00400EAE70A463D
:108D5400AC466168BDE87040604700BF2C5101001B
:108D6400DF570100F057010095570100034A1368CB
:108D74000BB9526813600020704700BFFC850020C7
:108D840030B50C460E4985B00291D0F8D411054691
:108D9400CDE9003100F1F0014FF0FF33204606F039
:108DA4002FFB50B9012384F86C30D5F8D03123B1AE
:108DB400204605B0BDE83040184705B030BD00BFBF
:108DC400DB23010038B50C461146054609F005FBC6
:108DD400034638B92846044909F0FFFA034600203F
:108DE400236038BD0120FBE7ED6D01002DE9F04F54
:108DF400012381460569466887B005F56577D7E89C
:108E0400EF2F002A03D1C7E8E13F0029F7D10CBFB7
:108E14001A46002240F0B480B368B16A05F5F878C8
:108E24001C1F104609F05DFB844272D8013A00F021
:108E3400A180B2FA82F24FF00044D4407268204616
:108E4400073222F00302C5F88822B16A09F049FB0F
:108E5400C5F88C02B36A40466343033323F003032B
:108E640002EB4302230103EB4403093323F003031E
:108E740003EBC403C5F880221A440832C5F87C22E7
:108E84007368C5F88442C5F878323F4BC5E9B363CB
:108E9400D9F80030C5F82432316800F0DFF904460F
:108EA400002834D1D9F810B0D9F804A0D9F800308A
:108EB4000BF53A79059004934846DAE90734012B17
:108EC40008BF103C0BF04EFCDAF824002F4904AB29
:108ED40001EB80214FF4806248460093234607F05B
:108EE4003FFA2B490BF536700BF0F5FBDAE9050177
:108EF40083685C684CB15B46264AA047044630B997
:108F0400DAE9050183681B692BB96FF05704002166
:108F140029E0013285E70122984704460028F6D16A
:108F24001D4B2846C5F8D0311C4BC5F8D4311C4B19
:108F34000393D5F838320293D5F83032CDE9008363
:108F4400D5F89032B26AD5F8901300F04FF9044680
:108F54000028DCD105F1F00006F0F8FA0028C5F885
:108F640098030ADB0221384609F06BFA204607B061
:108F7400BDE8F08F6FF00B04C9E76FF01504C6E786
:108F84006FF07704F2E700BF31240100709A0020EB
:108F9400172401000B240100A98F0000BD25010046
:108FA4007724010013B5044640B100230122CDE922
:108FB4000032074BD0E9091206F0D2F9236F1B687F
:108FC40023B1606F02B0BDE81040184702B010BD75
:108FD400ED6D010013B504460846216901F565717C
:108FE400D1E8AF1F022910D193B1A0B10121CDE97D
:108FF40000311346D0E9091206F0B2F9074B984242
:1090040008BF6FF00B0002B010BD6FF00F00FAE75D
:109014006FF04C00F7E76FF00100F4E72EF8FFFF64
:109024002DE9F74388461546066906F56573D3E8C6
:10903400AF3F022B5FD1136823B96FF0150003B063
:10904400BDE8F0831B78002BF7D0D6F89093B9F1E4
:10905400000F33D106F5EC774FF0FF324FF0FF33BA
:10906400384606F0EBFE30462A6801A9FFF7AAFE4F
:10907400019C1CB9384609F0E2F9DEE705F1080362
:1090840023676B6984F86C906367646460B13846E5
:1090940009F0D5F921463046A36E2A68FFF770FE21
:1090A4000020C8F80040CAE72022296804F14800DB
:1090B4000BF0F0FD384609F0C2F9F1E730460F49EC
:1090C40009F08BF904460028B7D005F108030367BB
:1090D4006B6940644367002380F86C302022296860
:1090E40048300BF0D7FD22460121304600F060F8ED
:1090F4000028D5D0A1E76FF00F00A0E7ED6D0100C7
:1091040010B50C46006900F56573D3E8AF3F022B38
:109114000FD189B10A4900F536700BF008FB2046DF
:109124000AF0F5FD7822002120460BF089FD00208D
:1091340010BD6FF00F00FBE76FF00100F8E700BF10
:10914400409600202DE9F04F05460E469046002734
:10915400D0F8C4A085B0AAF5BE7421463046FEF707
:10916400F7FFE0B9114BA4F1480B0293DAF8103081
:109174003246CDE9008329464FF0FF335846AAF51D
:10918400E27906F03DF960B97823012203FB0793E5
:1091940083F86C20DAF80C300BB1584698477834D1
:1091A40017B105B0BDE8F08F0127D6E7EB25010024
:1091B4001FB5144690B18AB1012912D10A4B00F1AE
:1091C400F0010293D0F8D431483201934FF0FF33C9
:1091D4002046009306F014F904B010BD6FF015009A
:1091E400FAE70020F8E700BFEB2501002DE9F04382
:1091F40087B00E46DDE90E811446DDE910251F46D1
:1092040030B329B3DFF850C000F1F009002D08BFD6
:1092140065469EB9CDE9034400F5E27420460596FF
:109224000BF00FF803ABCDE900432A463B46414619
:10923400484606F005FA07B0BDE8F083002241462F
:109244000E9248462A4607B0BDE8F04306F04EBBEE
:109254006FF01500EFE700BF49910000F0B50E462E
:10926400044689B0002872D0436B0BB9394B436371
:1092740001232246E3630023D4F8981004F140004C
:1092840042F8301FCDE901334FF0FF330093D4F897
:109294009C300AF010FA304A06AB92E8030083E8E7
:1092A4000300184605F062FF0546D8B904F13400FE
:1092B40005F03EFF0546A8B9616B284805AA0AF0E7
:1092C400D6F9054670B9059B9A6872B10C33D4F887
:1092D4009400C4F8A03009F0B7F9C4F8D40030B948
:1092E4006FF00B05284609B0F0BD0346EFE7D4F84C
:1092F400940009F0A9F9C4F8D8000028F0D0D4F8F3
:109304008C30D4F8A010C4F8A8300423C4F8AC30CE
:10931400C4F8C4300223A362114BB4F89420D4F8E7
:10932400D470C4F8B810C4F8D010D4F890102362E4
:1093340004F1A403A4F8B020C4F8A470C4F8C010C5
:10934400A4F8C820C4F8BC00A661E362CAE76FF0C1
:109354001505C7E715580100A45101001F58010065
:109364004C5201002DE9F047044607464FF001092D
:10937400DFF8508014B93846BDE8F08794FAA4F5B4
:10938400B5FA85F509FA05F32E0108EB05156FEA20
:10939400030A24EA03042B7B002BEBD058F8063095
:1093A4001B694BB94644736804222846196807EAC6
:1093B4000A0700F05BFADDE7284698470028D9D170
:1093C400F0E700BF7C51010030B5002289B00F499D
:1093D4000F480BF082FB002200230024CDE9062372
:1093E4000E230C4DCDE903344FF440722846CDE9E9
:1093F4000144094B0949009407F09EF8084928469E
:109404000BF0DBF9204609B030BD00BF2994000001
:1094140098910020088D002015970000709E002070
:1094240027580100014806F0EFBD00BFA0880020C6
:109434002DE9F04780461F480F4609F057F90646C4
:10944400002830D000252846BDE8F087237B6BB187
:109454002368DB680BB12046984723681B69D3B99E
:10946400636804222046196800F000FA01361034BB
:109474004C45EBD3B8F1000FE5D0002DE2D02846DF
:10948400FFF770FF0546002FF7D000214FF4A470BA
:1094940007F004FBF1E7204698470028E0D00AFAD9
:1094A40006F31D43E2E705464FF0010A024CDFF8DC
:1094B4000C90DDE7789600207C5101008C5101006E
:1094C400014B53F8200070478C52010008B5034645
:1094D40008462BB1044A136000F072FC002008BD5A
:1094E4006FF01500FBE700BF2886002010B5044C80
:1094F400237813B9034806F087FD0123237010BDB8
:10950400B4990020A088002010B50446094809F049
:10951400EDF83CB1084BD3E8EF1F0139C3E8E21F73
:10952400002AF8D105480BF0E4FABDE810400448DD
:1095340006F06ABD70960020749600209891002071
:10954400A088002000200146034BD3E8EF0FC3E8B6
:10955400E21F002AF9D170477096002070B5FFF71A
:10956400F1FF0546074C084EB44200D370BD636852
:109574005B792BB123685B6813B129462046984771
:109584001034F1E77C5101008C51010010B5044CFA
:109594000449204608F034FC034B1C6010BD00BF96
:1095A40020880020785201006896002008B5002326
:1095B400074A4FF400411370064A07481360074AEC
:1095C4001360FFF783FFBDE80840FFF7DFBF00BF6C
:1095D400B599002070960020ED26010074960020B5
:1095E400014600220023014808F02BBC20880020FB
:1095F400014808F0C1BC00BF20880020024B01468E
:10960400186808F00DBD00BF68960020014808F0F6
:1096140042BD00BF2088002070B5264B1878002872
:1096240047D0FFF7E5FF054670B1234BD3E8EF1FA2
:109634000139C3E8E21F002AF8D1204C204EB4427D
:109644002DD32846FFF7DAFF1E4B1F4C1B68002B57
:1096540019DD0BF0FBF94FF47A72A0FB020302FB55
:109664000131C30B43EA4143D4E900209B1A40F281
:10967400E9324FEAD13161EB0001934271F100010B
:1096840001D3FFF76BFFD4E9003213F57A7342F18B
:109694000002C4E90032BDE87040FFF7B7BF636859
:1096A4005B7923B12368294620461B689847103408
:1096B400C5E770BDB4990020749600207C51010068
:1096C4008C510100709600209091002070B50D4DD2
:1096D400297861B90120FFF7ABFE0B4C0B4EB44265
:1096E40006D3FFF799FF0028FBD101232B7070BD2F
:1096F40063685B791BB1236820469B6898471034E4
:10970400EDE700BFB59900207C5101008C510100A8
:1097140000212DE9F0470846FFF78AFE044658B3B6
:1097240040F267684FF000090BF02EFB1B4B1C4AFC
:109734001B58136033B11B4B1B68092B02DD1A48FD
:1097440006F062FC0025194FDFF85CA044B1204606
:10975400FFF708FE044618B94FF0FF384FF0FF3901
:10976400FFF75AFF064628B9B5B942464B4650465C
:1097740006F06EFC3546E9E74FF0FF384FF0FF394D
:10978400D2E72B689B691BB10022284611469847F3
:109794001035BD42F5D3E8E7054DFAE708000000AF
:1097A4006C96002074960020A08800208C51010043
:1097B4007C51010013B5184808F098FF174B1B782B
:1097C40073B1EFF31184202383F31288BFF36F8FF7
:1097D400FFF722FF84F31188BFF36F8F02B010BD2F
:1097E4000F4B1B68002BF9D050B9002200230D4801
:1097F400CDE900234FF40042002307F0D5FBEDE749
:109804000928EBD107480BF074F9074802B0BDE80A
:10981400104006F0F9BB00BF74960020B5990020F3
:109824006C96002098910020A088002010B5064B6B
:1098340004461B6898472146A060044808F07DFB55
:10984400BDE81040FFF7B6BF28860020208800201E
:10985400044A054B9B1AB1EBD30F34BF52F83100C5
:1098640000207047CC5001007C510100084B10B41B
:10987400C31A44681B110133237143689A7101228E
:109884004368196043685A7110BCFFF72FBE00BFCC
:109894007C5101002DE9F04F8FB0C1F34A2804AF89
:1098A4000D469146B8607B600C0DB8F1000F63D093
:1098B40000264FF0040B4FF00A0A07F11403C7F80F
:1098C4000C80C7E907667E620193CDF808B0CDF835
:1098D40000A007F11C0332464846F968FEF77CFEF7
:1098E400B0F5006F03461CD36C468AB0D9F8041057
:1098F40004AB26481A46C3E9050140F2FF71D96159
:109904004FF400711984224B42F8103F4FF4125166
:1099140033462048FFF7BEFFA5462C37BD46BDE8B9
:10992400F08FC0F30A0804F11700184420F0070070
:1099340080083B60FFF754FE68F35325044690B15A
:109944003B6800F11001C7E9083607F11403F96117
:10995400CDE900A3CDF808B048460F4AF96807F1ED
:109964001C03FEF739FE68F353252A4620467B681C
:10997400B96808F0EDFED0E704F1170020F0070005
:109984008008FFF72DFE0446EDE700BF3C580100B8
:109994000400000134510100292701002DE9F04F92
:1099A40087B00446DDE9105ADDE9127993469846FA
:1099B4000391BFB13B46524610210020CDF80090E0
:1099C400CDF81490FEF736FCB0F5006F06460AD3C6
:1099D40040F2FF730221174A174807B0BDE8F04F61
:1099E40008F00FBF3E4605F11700304420F0070091
:1099F4008008FFF7F5FD04F007040BF0070BE40003
:109A040044EA8B1444EA462444EA0554054640B12A
:109A14003FB13B4652463146CDF800901030FEF738
:109A240009FC434622462846039907B0BDE8F04F97
:109A340008F08EBE7B58010034510100406820B10B
:109A4400034BC01A40F3CF0070474FF0FF3070470C
:109A5400CC5001000EB403B503AB53F8042B0146FC
:109A64000448019301F02AFA02B05DF804EB03B054
:109A7400704700BF69280100CA0605D48B064CBF95
:109A840002490349FFF7E6BF704700BFEC6D0100D0
:109A9400EB6D01002DE9F04F89B09B46149B9DF8B6
:109AA4004CA00693159B04460593169B0D469046C1
:109AB400179E0493BAF1000F00F09D8006F48073A2
:109AC400079308F02DFE06F00209024600283ED056
:109AD40020469149FFF7BEFF0746B9F1000F08D0B1
:109AE40016F0440F35D12A4620468C49FFF7B2FFC1
:109AF400074406F0010353B1894B204653F82A204A
:109B0400884B8949002A08BF1A46FFF7A3FF06F4C9
:109B14008073002B49D006F00803002B63D1B8F101
:109B2400000F66D0424620468049FFF793FF054662
:109B3400069B3D44002B6DD1049B002B73D1F3078E
:109B440000F1E48031462046FFF796FFD8E007464F
:109B5400C3E7774B18680028CAD0764B4FF47A795C
:109B64001B684FF46161B5FBF3F5B5FBF0F300FB43
:109B7400135509FB05F5B3FBF1F2B5FBF0FE4FF00D
:109B84003C0C01FB123100FB1E55B1FBFCF309FB3D
:109B940005F5B5FBF0F50CFB131120460091CDE95A
:109BA40001E56549FFF756FFA2E706F00803EBB1AC
:109BB400624B204653F82A206149FFF74BFF0546C4
:109BC400B8F1000F05D0424620465849FFF742FF3E
:109BD4000544BBF1000FABD05A4620465949FFF764
:109BE40039FF0544A4E74FF0000BE1E706F0080550
:109BF400E6E745469CE7BBF1010F069B06D1002B27
:109C040064D1049B002B7BD000250CE0002BF8D002
:109C14004D485CE04D48069B22464D4907F080FFC5
:109C2400049B002B68D0DFF82C81DFF82C91049F73
:109C34003146102F204628BF10274FF0000BFFF7A6
:109C44001BFF5D4545DC059B494620461A78FFF716
:109C540001FF4FF0010B1BF0070F03D141462046D3
:109C6400FFF7F8FE5F453BD9059B4946204613F8AC
:109C74000B20FFF7EFFE0BF1010BBBF1100FEAD144
:109C84004FF0000B20463549FFF7E4FE5A46059B8A
:109C940020469A5CA2F120015F2928BF2E22304978
:109CA400FFF7D8FE0BF1010BBBF1100F1DD01BF019
:109CB400070F03D141462046FFF7CCFE5F455A46C5
:109CC400E5D841462046FFF7C5FEEBE71F48554659
:109CD400A1E741462046FFF7BDFE0BF1010BB0E7BB
:109CE40020462049FFF7B6FEC5E7059B3B44059394
:109CF400049BDB1B04939AD1BAF1000F7FF41FAFCE
:109D0400204609B0BDE8F04F08F09FBD2046054A43
:109D14000549FFF79FFE15E7B8580100BC5801003C
:109D24009C520100B358010020610100E158010078
:109D3400809600207C960020C5580100B052010096
:109D4400E5580100EB58010097280100692801003B
:109D5400C1AE0000B76D0100F0580100F6580100D3
:109D6400F8580100B56D010042F20F7373B58B42D0
:109D740028BF0B4605680446052168460D4A07F0CE
:109D84009BF90646636828460B225B680A4908F07B
:109D94004EFD63683246694628465B6808F047FD15
:109DA40063681B2228465B68044908F040FD02B042
:109DB40070BD00BF2A5F010017590100FB58010064
:109DC40000210123064A904206D8064A01B901231C
:109DD4001360054B18607047012140085B00F2E7EF
:109DE40040420F007C960020809600200122014B07
:109DF4001A707047B6990020014B00201960704713
:109E0400989600200148FFF7AFBF00BFE052010061
:109E140010B5064B0C461868FFF752FB2146BDE807
:109E2400104003460F220248184700BF98960020AE
:109E3400E05201000122F8B5084B094D094E1A7091
:109E4400D5E900470CB92C60F8BD214630463A46A6
:109E540000F01EF8241A0644F4E700BFB799002066
:109E64008C960020B899002010B9074B18707047E1
:109E7400064B1B781BB141F288300AF05FBAA4206C
:109E8400002106F00BBE00BFB6990020B799002050
:109E94002DE9F84380460E460424DFF870901C4FE9
:109EA40099F8005095B905F0F9FD28463246414627
:109EB40005F062FD054605F0FBFDE5B101233B70AD
:109EC40099F8003073B93046BDE8F883324641460C
:109ED400002005F051FD0546EFE72046651EFFF71B
:109EE400C3FF2C46002005F0CFFD0028EBD03B78C3
:109EF400002BF2D1E7E73B78002BE4D0013C20466D
:109F0400FFF7B2FF3B78002BCAD1DCE7B7990020FA
:109F1400B6990020014B036000207047F052010005
:109F240008B5044807F056FEBDE80840024807F0AB
:109F340051BE00BF53590100885901002DE9F04F6B
:109F4400002703689DB002934368DFF8BCA1039324
:109F54008368DDE902460493C36805930369DDE978
:109F640004BE0693436907938369DDE9062C0893CD
:109F7400C36998460993089B0093CD590CAB2DBA3D
:109F84005AF8049BDD514FEAF223A94483EAB21341
:109F9400009D83EA72634B4425EA020502EA0C0938
:109FA40085EA09052B44434486EA0B054FEA7438D5
:109FB40088EAB408254006EA0B0985EA090588EA17
:109FC400B4580437A844402F03EB0E054344DE463F
:109FD400DDF8008040F088804FF0100A4B490A9168
:109FE40051460AF1010A0DF1700E0AF00F070EEB4B
:109FF400870757F8407C01F00F094FEAB7480197EB
:10A0040088EAF71801F10E0707F00F070EEB870730
:10A0140057F8407C09314FEAF74E8EEA774ECDF877
:10A024002CE001F00F010DF1700E0EEB81010EEB2F
:10A03400890959F840EC51F8401CBAF1400F7144B9
:10A04400DDF804E088EADE08DDF82CE041448EEA1D
:10A05400972E714405EA02084FEAF52E2CEA05070B
:10A0640087EA08078EEAB51EDDF828808EEA756E49
:10A07400774458F804EF49F8401C77440F4400999A
:10A084004FEA733E394484EA0607CDF828808EEA05
:10A09400B30E07EA030704EA06088EEAB35E87EA0A
:10A0A400080777440F4401EB0B0ECDF800C0B3460C
:10A0B40022D102993944016003991944049B4160F7
:10A0C40023448360059B3344C360069B734403614C
:10A0D400079B2B444361089B13448361099B63449E
:10A0E400C3611DB0BDE8F08FB346CDF800C026466D
:10A0F40094461C462A4640E7944626462A461C4671
:10A1040075463B466CE700BFF05201002C5301003A
:10A1140010B50446C8B17022002108F00AFC0B4BAC
:10A124000B4A0C49C4E900230B4B0C48C4E9021345
:10A134000B4BC4E9040301200A4BA36103F17453DC
:10A14400A3F52303A3F69243E36110BD85AE67BB79
:10A1540067E6096A72F36E3C3AF54FA57F520E51D9
:10A164008C68059BABD9831F2DE9F04706460C4646
:10A1740000AF002936D0D1E90012E9468AB06D4615
:10A18400A3684FF0050AA8461F48C5E90723C5E997
:10A19400050148F810AF002342464FF421511B48F3
:10A1A400FFF778FBD4E90312CD466369AD4618483E
:10A1B400C5E90723C5E90501C5F810A000234246F7
:10A1C4004FF421511148FFF765FBCD46E3690121A6
:10A1D400104A0E4808F015FBA36901210E4A0B48EA
:10A1E40008F00FFB012E07D1EFF305830B4A31462C
:10A1F4000648103B08F005FB2146304605F06EFC8E
:10A20400BD46BDE8F08700BFB659010064510100A6
:10A21400E5590100145A0100235A0100515A010062
:10A2240030BFFFF7FDBF00BF2DE9F04105460B4EDF
:10A23400DFF82C80324606EB0807CC1B2046094980
:10A244000AF0F1FCA01942460021083C0AF0F8FC8F
:10A254006C6707F10800BDE8F08100BF0000000052
:10A26400040000008C510100074A936893F90E1012
:10A27400002907DB526993421FBF044A536843F025
:10A2840080535360704700BF7C99002000ED00E0CC
:10A2940070B52A4C06460D4629482A4908F07FFD28
:10A2A400A36ADB0647D52648274908F078FD112024
:10A2B400A36A1C0704D52248244908F070FD122023
:10A2C4001E4CA36A990712D521491D4808F067FD61
:10A2D400636BA26A120609D501211E4A184808F0C8
:10A2E40090FA1EB1A36A23F08003A3621320134CD7
:10A2F400A36ADE0704D51248174908F050FD14205C
:10A30400A36A9C0604D50E48144908F048FD15209C
:10A314000A4B9A6AD10658BF9A6A9A6A920642BF51
:10A324005A6A22F400525A629A6A42F0FF029A620E
:10A3340000232B7070BD1020BAE700BF00ED00E0D1
:10A3440064510100645A01007A5A0100AD5A0100B7
:10A35400C05A0100D85A0100EE5A01000D5B0100F9
:10A3640010B5244C2449254808F019FDA36A990125
:10A374003ED52248224908F012FD1E20A36ADA01C4
:10A3840004D51E481F4908F00AFD1F20194CA36A72
:10A39400DB0204D519481C4908F001FD0220A36A18
:10A3A4001C0304D51548194908F0F9FC2120114C67
:10A3B400A36A590304D51148154908F0F0FC22207A
:10A3C400A36A9A0304D50D48124908F0E8FC232037
:10A3D400084CA36ADB0304D508480F4908F0DFFCE6
:10A3E4002420A36A6FEA03436FEA1343A36210BDF8
:10A3F4001D20C3E700ED00E03C5B01006451010057
:10A40400545B0100675B0100815B0100AB5B0100F1
:10A41400C95B0100EE5B0100085C010070B5294CCA
:10A4240006460D462848294908F0B9FCA36AD90410
:10A434003CD52548264908F0B2FC1720A36A1A0522
:10A4440004D52148234908F0AAFC18201D4CA36A0E
:10A454009B0512D51C48204908F0A1FCA36BA26AF5
:10A46400100409D501211D4A174808F0CAF91EB184
:10A47400A36A23F40043A3621920124CA36A59056A
:10A4840004D51148164908F08AFC1A20A36ADA0593
:10A494000ED50D48134908F082FC1B20094A936A23
:10A4A40043F47F43936200232B7070BD1620C5E7ED
:10A4B400A36A9B04F2D504480B4908F070FC1C20E5
:10A4C400ECE700BF00ED00E064510100335C0100E3
:10A4D400495C0100AD5A01005A5C0100735C010043
:10A4E400885C0100A35C01000D5B01002DE9F047CD
:10A4F4008AB0694B0446D3F804A089461646002561
:10A5040000AFCAF3080885F31188BFF36F8F02F018
:10A514007F43B3F17F4F1ED1D3071CD4500603D41D
:10A52400110708D4012508E05C495D4808F037FCB0
:10A5340016F0040600D04C4600250023FB71A8F158
:10A544000303092B00F28680DFE803F0077C7F79A0
:10A554008484848484822C46EFE75249504808F06E
:10A564001EFC00234C4EFB71F36A9A0705D54E4935
:10A574004B4808F014FC002329E0F36A002B01DAAD
:10A584004A49F5E7F36A5B00F5D54949444808F0C0
:10A5940006FC7369A26943F480737361BFF34F8F40
:10A5A400BFF36F8F736932F8022C23F480737361E5
:10A5B400BFF34F8FBFF36F8F4DF602739A4228D1CA
:10A5C400236801213B4A364808F01BF92368FA79CD
:10A5D400DAB907F1080604F1200C324620686168F4
:10A5E400083403C264451646F7D17A6A002D4ED06A
:10A5F400C2F3080121B96FEA52226FEA42227A6259
:10A60400184607F10801FFF7AFFD2837BD46BDE83E
:10A61400F087B36ADBB22BB10120F91DFFF738FED6
:10A624000346D4E7B36A13F47F4F04D00120F91D25
:10A63400FFF7F4FEF4E7B36AB3F5803F9BD3FFF76B
:10A644008FFEEDE70020F91DE8E70020F91DEFE794
:10A6540019498DE7194A6E461AF4F87F8AB0184BE7
:10A6640018BF13466A461749C2E90513A8F1100337
:10A67400D3614FF400731384134B42F8103F00234B
:10A684004FF411510648FFF705F9B54673E722F474
:10A69400FF7222F00102B2E700ED00E0E95C010084
:10A6A400645101000C5D0100235D0100445D010063
:10A6B400525D0100715D01008D5D0100D05C0100FF
:10A6C400BB5C0100B15D010004000001064B5A6946
:10A6D40042F010025A615A6942F480625A615A691E
:10A6E40022F008025A61704700ED00E0EFF30880A1
:10A6F400EFF3098101B57246FFF7F8FE01BD00BF13
:10A70400002080F31488BFF36F8F002080F30A8841
:10A7140080F30B8808F0F3FE00200E490860BFF3B5
:10A724004F8F0D4880F3088800F02CF8202080F328
:10A7340011880A484FF40061401880F30988EFF348
:10A7440014800221084380F31488BFF36F8F00F054
:10A754000FF9000094ED00E060B7002020A600206F
:10A76400002318460649D1F89020C2F307229342E9
:10A7740000DB7047C1F89830C1F8A0000133F6E758
:10A7840000ED00E010B572B6002484F31388FFF7DF
:10A79400E7FF23464FF0FF300C4A03F12001013359
:10A7A400102B42F82100F8D100234FF0FF30074A64
:10A7B40003F160010133102B42F82100F8D162B695
:10A7C400BFF34F8FBFF36F8F10BD00BF00E100E0F8
:10A7D400084B9B6883420BD1EFF3058343B1064BCF
:10A7E4005A6842F080525A605A6A22F400425A620D
:10A7F4000AF0CFB87C99002000ED00E06FF00A0168
:10A80400084A9368D967084998674B6843F08053AE
:10A814004B60002383F31188BFF36F8F9368D86F65
:10A82400704700BF7C99002000ED00E0104A936857
:10A8340083F88100EFF31183202383F31288BFF39D
:10A844006F8F4FF00061536920F0FF009360094A55
:10A854005160596F084A1160002193F88120104318
:10A864009A6F996782F31188BFF36F8F704700BFA7
:10A874007C99002000ED00E09C96002010498A6835
:10A8840082F881E04FF030001044EFF3098C80E847
:10A89400F01F74467046FFF7C9FFA64608498A6848
:10A8A400864602F1300090E8F01F8CF3098802F12B
:10A8B400000004B508F07DFABDE8044070470000CC
:10A8C4007C9900201EF0040F0CBFEFF30880EFF317
:10A8D4000980816911F8021C0229FFD001B508F032
:10A8E40053FA01BD40B2002807DB01234109034AA2
:10A8F40000F01F00834042F82130704700E100E07F
:10A9040040B200280CDB01220649430900F01F0075
:10A914008240203341F82320BFF34F8FBFF36F8F62
:10A92400704700BF00E100E0054B420953F82220C4
:10A93400012300F01F0003FA00F01040704700BF2D
:10A9440000E100E040B2002801F10101ACBF00F1D8
:10A954006040064B4FEA4111C9B2ABBF00F56140FC
:10A9640000F00F0080F800131954704714ED00E054
:10A974000B4A08B50B4B22F07F029A60BFF34F8F4E
:10A98400BFF36F8FD3F8882022F47002C3F88820B5
:10A9940005F090F906F03EF900F050F805F0CAF918
:10A9A4000080000000ED00E042F8203C009B0D49CF
:10A9B40042F81C3C019B21F0010142F8183C029B27
:10A9C40042F8081C42F8143C4FF0807342F8043CEF
:10A9D400002383674FF43C43203A0265C0F880307B
:10A9E400704700BFA989000000B50D4B154698605B
:10A9F400426F0C4B0E461A60436E83F30B882C4651
:10AA040086F309884FF00000074B984720464FF023
:10AA140000014FF000024FF00003044C204700BF38
:10AA24007C9900209C960020BF2D0100A98900007C
:10AA34001022014B1A61704700ED00E00023202131
:10AA44000348C2180133452B82F80013F9D170472B
:10AA540000E100E008B5EFF30583064A103B02EB82
:10AA6400C30152F8330049688847BDE80840FFF73E
:10AA7400FBBB00BFA44E01001FB5094C094A234685
:10AA84000121094800F012F900230393074B012127
:10AA9400E41A01A80193029400F012F904B010BD65
:10AAA4000000072000800020F05301006889002086
:10AAB40010B50C7A0B6804F01F0223F01F031A432D
:10AAC400CB68640923F01F03054943EA440343F0B8
:10AAD4000103C1F89800C1F89C20C1F8A03010BD52
:10AAE40000ED00E010B50A4BD3F89030C3F3072310
:10AAF400013B984208D901210346064A064807F05B
:10AB040080FE6FF0150010BDFFF7D2FFFBE700BF1A
:10AB140000ED00E0C85D01004C5101002DE9F04F4B
:10AB24008946144606464FF00008514D85B0C84585
:10AB340027DAD6F804A0BAF1000F44D0BAF11F0FF7
:10AB440017D91AF01F0F14D1D6F800B01BF01F0F3D
:10AB54000FD1584608F051F907460AEB0B000138AB
:10AB640008F04BF9874210D06FF01507414A3B4675
:10AB740001E04346404A0121404807F042FE6FF09D
:10AB84001504204605B0BDE8F08F17F1160FEDD07F
:10AB9400BC42EBDDC5F89870D5F89C10C5F89870E8
:10ABA400D5F8A03021F01F0143F01F0BD6E9003285
:10ABB4001A44994202F1FF3A1DD1D34507D13146D7
:10ABC400F8B208F023F908F101080C36AFE7314672
:10ABD400C5F89870D5F89C3022F01F0203F01F03CB
:10ABE4001343C5F89C30E0B208F010F910F1160FC9
:10ABF400C5D0441CE7E7C5F89870D5F8A020013B00
:10AC040023F01F0302F01F021343D3453146E0B281
:10AC1400C5F8A030E8D008F0F9F810F1160FAED05E
:10AC2400C5F89870D5F89C209DF808300BF1FF3BCF
:10AC340062F304038DF80830D5F8A0309DF808209D
:10AC44005B0863F347128DF80820D6E900321344F9
:10AC5400009323F01F035B44A3EB0A03013023F0AA
:10AC64001F036946C0B20393FFF73CFFBEE700BF72
:10AC740000ED00E0115E0100EE5D01004C510100A9
:10AC84000522044BC3F89420BFF34F8FBFF36F8F9B
:10AC9400704700BF00ED00E0BFF35F8F0022024B5E
:10ACA400C3F89420704700BF00ED00E010B5034CDA
:10ACB4002278FFF733FF207010BD00BFC899002031
:10ACC4002DE9F74F294D8A4606464FF00008AB465A
:10ACD400274FD0451BDAD6F80490B9F1000F3FD0C6
:10ACE40031680846019108F088F80199044609EB97
:10ACF4000100013808F081F884424FF014021D4B22
:10AD040008D002FB08F36FF015024BF8032003B0E0
:10AD1400BDE8F08F14F1160F2C60F8D01978A14219
:10AD2400F5DD02FB08B0C7F89840C7F89840D7F89B
:10AD34009C4000F10801007B64F304000871D7F81B
:10AD4400A0000C79400860F347140C71D7F89C10EC
:10AD540021F01F016960D7F8A01021F01F012961BB
:10AD640008F1010814350C36B3E700BFA0960020A3
:10AD740000ED00E0C8990020F0B54149414CD1F8FC
:10AD840090302568C3F307239D4287B075D800200F
:10AD9400FFF782FF3C4BC1F8C030854216D13B4CD3
:10ADA40001A82570FFF7B6F800250646384FAE42D5
:10ADB40013D1002023783249D1F89020C2F307221E
:10ADC400934254DBFFF75CFF00202FE0616801EB46
:10ADD4000011FFF76DFE0130DFE70199280101EB57
:10ADE4000513DA683A40B2F5001F21D0B2F5800F9E
:10ADF4002BD0B2F5801F38D15A689B680958013BA3
:10AE040022F01F0003440120844623F01F0340EA7C
:10AE14004C10CDE902218DF8100002A92078059389
:10AE2400FFF760FE00281DDA6FF0150007B0F0BDD3
:10AE34005A689B680958013B22F01F0003444FF0F5
:10AE4400020C012023F01F03E1E75A689B680958AC
:10AE5400013B22F01F0003444FF0000C062023F0B6
:10AE64001F03D4E723780133237001359FE7C1F82A
:10AE74009830C1F8A00001339EE74FF0FF30D5E7CA
:10AE840000ED00E0FC530100AAFF4400C899002033
:10AE94000000F0FF08B5024B1B689847002008BD6E
:10AEA400B4960020034B044A1860937843F00203DD
:10AEB40093707047B49600202C860020F0B587B0BC
:10AEC40007460E4614460021102268461D4609F026
:10AED400B7FE02238DF80230054B2A462146684608
:10AEE400CDE90476019306F013F907B0F0BD00BF75
:10AEF400432E010008B50649064821F00701C1F1B7
:10AF0400005202F5E02206F0B3FD002008BD00BFA8
:10AF14004FD90020B896002070B541690446867A5E
:10AF24000A4D59B1437ADB0706D42C2303FB06539D
:10AF34005B6A1B689B689847002363612C20214649
:10AF440006FB0050BDE8704009F034BBB88800200F
:10AF54002C22024B02FB0030704700BFB88800204F
:10AF64002C21827A054B01FB02339A6A1B7F801ADB
:10AF74001B3323F00303B0FBF3F07047B8880020C1
:10AF840038B52C24827A064B04FB02335B6AD3E97E
:10AF940001240C601568FFF7E3FF04FB005038BD83
:10AFA400B88800202DE9F04F85B0054668469146E3
:10AFB4001C4690469A46039109F04AFDDDE9006774
:10AFC400EFF3118B202383F31288BFF36F8F698B08
:10AFD400002942D02B8B8B4226D9002200232846FD
:10AFE40004F0E0FF0446F8B18BF31188BFF36F8FD0
:10AFF400039B002B4FD032463B46684609F04CFD7C
:10B004002C21A27A2C4B204601FB02335B6A03A954
:10B014001B681D68DDE90023A847606100283BD157
:10B024002046FFF779FF31E0698B4B1E6B838BF36E
:10B034001188BFF36F8F2B7F2A8BAC6A1B3323F0ED
:10B044000303521A02FB03441B4B1C4AEB1A9B10CA
:10B054005343A3722B7FE372CAE78BF31188BFF3C8
:10B064006F8F54EA090409D009F08EFE144A154B77
:10B0740012589A420ABF8846C846C24642465346B8
:10B08400284604F08FFF04460028B1D1002420464E
:10B0940005B0BDE8F08F6361012300252381039B84
:10B0A40029466382E27A656004F1180009F0C8FD5C
:10B0B40063692582E360EAE7B8880020A38B2EBA8F
:10B0C40008000000F094002070B52C250B4C00B94A
:10B0D40070BD037A4668013BDBB20372002BF7D1E3
:10B0E400C3604360837A05FB03431B6A13B198472B
:10B0F4003046ECE7FFF710FFFAE700BFB8880020FE
:10B1040007B50DF1070003F001F9114B98421CD16A
:10B114004FF480620F4B1049C3F8B8254FF4006216
:10B12400C3F83C259DF8070008F0F2F90B499DF897
:10B13400070008F0E8F901209DF80730984003F073
:10B14400D9F8002003B05DF804FB6FF00B00F9E7B9
:10B154000000AD0B00A002402CA0024028A1024038
:10B16400052370B5144D154E2C780134B4FBF3F35C
:10B1740003EB8303E41A08F068F9114A137823B146
:10B1840056F82430C01A072813D90E4BD3F81411DB
:10B1940041B10021C3F81411D3F814312C700CB947
:10B1A400012313702C7808F050F946F8240001208C
:10B1B40070BD0020FCE700BFCA990020C49600209F
:10B1C400C99900200050004048B1054B054A1B684E
:10B1D400B3FBF2F35843044B43F0010318477047A1
:10B1E400A486002040420F00005201000B460121BA
:10B1F400024AC2F814160021184700BF005000404C
:10B204000149024806F0AFBF30540100D89600202F
:10B214002DE9F047174B0546D3F830210C46072A91
:10B22400D3F8343121D1023B032B02D8124AD35C28
:10B23400DBB14FF0010800264FF050290F4F0520D5
:10B24400C9F81886C7F8146608F05BF94046C7F8D1
:10B25400148608F056F9C7F81466C9F81866284623
:10B264002346BDE8F047002118470022034BC3F8EA
:10B274001426F4E700F007205E5E01000050004051
:10B284001FB50023019303930123694605480293E4
:10B2940006F07CFF029B9B0708BF039B05B05DF88B
:10B2A40004FB00BFD896002008B1FFF7E9BF0148AE
:10B2B40006F0C3BFD896002073B5069CC4F30726D6
:10B2C400304602F07DFBE5B20146284608F025F938
:10B2D400002201200A4BA40B04F0FC041A51094B70
:10B2E400A84000938DF8042003F00AF8304602F0D9
:10B2F4001BFD2946684603F09FF902B070BD00BFEC
:10B3040080A00240007001407FB52C4B01A902933C
:10B31400002302A88DF80C3003F086F9284B9842DC
:10B3240048D102F0E3FC041E0BDA9DF8041002A8D5
:10B3340003F082F901212346224A234807F061FAE7
:10B3440035E040F60703214D8DF80540AE68ADF8B1
:10B3540006307468019B14B96FF05704EAE70821BA
:10B3640028461B4AA047041EE4DB3369002BF3D0B4
:10B374000122082128469847041EDBDB01209DF8A2
:10B384000430984002F0B6FF9DF805009DF8045083
:10B394009DF8076008F043F80146284608F0B8F81D
:10B3A4000C4BB60045F000459D51002CC2D12046FF
:10B3B40004B070BD6FF01204BCE700BF0070014020
:10B3C4000000AD0B625E010074510100684E010083
:10B3D400DDB3000080A102402DE9F34114468368E7
:10B3E4001B690BB100229847C4F30726304602F0CC
:10B3F400EFFA0546304608F012F84FF00008E7B2BD
:10B404000146384608F08DF8104B220E920043F89E
:10B414000280304602F0D4FA0D4A4FEA943C0CF014
:10B42400FC0C47F0004342F80C300146384608F063
:10B434006AF8084B05F13202009330464346019402
:10B44400520007F0F6FF02B0BDE8F08180A102408F
:10B4540080A00240BDB200000E4B402928BF40210D
:10B4640070B51D460C4C4618B04203F1020304D1DA
:10B47400002305F81130074870BD02781209A25C58
:10B4840003F8022C10F8012B02F00F02A25C03F85F
:10B49400012CE9E7E9990020EB5E010030B503785F
:10B4A4008BB0044607AD032B21D8DFE803F0021A62
:10B4B4001C1E12492846FCF755FE059563781E218B
:10B4C4000493A3780E4A0393E3780E4802932379F6
:10B4D400019363790093A37905F0EEFD09480BB05D
:10B4E40030BD0949E6E70949E4E70949E2E70A21E9
:10B4F4002846084A05F0E0FDDFE700BFA65E01002C
:10B50400C85E0100CB990020AD5E0100B45E01006D
:10B51400BE5E0100875F010038B50546054807F0A7
:10B524009FFC044620B101210C3007F0CCFC2576A9
:10B53400204638BD108900200E38012810B50CD8DB
:10B544000A4807F08DFC044628B101210C3007F0AD
:10B55400BAFC01232376204610BD09B10448F0E764
:10B564000120BDE81040FFF7D7BF00BF3C89002091
:10B57400B8880020012110B50C3007F0C8FCBDE8E4
:10B58400104003780121024A024807F00ABD00BFB7
:10B594000B5F0100EC50010010B50749074809F0A2
:10B5A400B6F8031E06DABDE810400121044A054836
:10B5B40007F0F7BC10BD00BF4C860020D0910020DE
:10B5C4002D5F0100EC5001000B46B0B50D8A00AFB1
:10B5D40004462946D868FFF73FFF8AB06A46094BFC
:10B5E400C2E90750C2E9053440F202439384064B92
:10B5F4004FF43251054842F8103F07F0DFFCBD46D6
:10B60400B0BD00BF4A5F010005000001EC5001001D
:10B6140037B50446084602EBC3039A4202D16FF0E1
:10B624005E0010E0114611F8085BA54211D1038AAF
:10B634005178994209D908480121084A009407F031
:10B64400EAF86FF0150003B030BD53689847002046
:10B65400F9E70A46E1E700BFEC5001006C5F010026
:10B6640038B51F4807F015FC0446002837D0017E82
:10B67400012930D1038A012B04D81A4A1A4807F049
:10B6840090FC1DE002210C3007F041FC03780546D4
:10B694000E3B012B0ED840F6A833144A1449154822
:10B6A40006F0A5FA002383F31188BFF36F8F0323F9
:10B6B400184602DF032321460F4A287807F081FC4D
:10B6C4002046FFF701FD0D4BD3F814313BB1BDE823
:10B6D4003840FFF761BF0B46094A0121CEE738BD68
:10B6E400D48500208E5F0100EC500100AA5F0100A8
:10B6F400DE5F01000C600100B4540100C08400202E
:10B704002960010010B5012104460C3007F0FFFB4D
:10B714002146BDE810400023014A007807F051BCDF
:10B72400CC540100F8B50121044600AF0C3007F0F9
:10B73400EEFB0678002321463046104AFFF768FFE7
:10B744005F3018D1258AE0682946FFF785FE6C46EC
:10B754008AB06A460A4BC2E90750C2E9053640F28C
:10B7640002439384074B4FF43251074842F8103F89
:10B7740007F024FCA546BD46F8BD00BFCC5401002B
:10B784003D60010005000001EC5001002DE9F74F78
:10B794000023804689461746DFF810A1DAE8EF4F08
:10B7A400CAE8E23F002AF9D1264644B943460121BA
:10B7B4003F4A404803B0BDE8F04F07F0F2BB2046D3
:10B7C400FFF7CEFB4FF00C0B3B4D0BFB00504388B7
:10B7D40043451BD02046FFF7C3FB0BFB00504388B7
:10B7E40001210093354A4346324807F014F8DAE859
:10B7F400EF3FCAE8E26F002AF9D1002B53D01E466E
:10B80400304603B0BDE8F04FFFF75EBCA7420ED050
:10B81400204607F020FB012104F10C084046217664
:10B8240007F051FB40463A8AF96807F056FB204678
:10B83400FFF796FB0C2707FB00504368ABB1B9F147
:10B84400000F12D12046FFF78BFB012107FB0050AC
:10B854004268D2E90003127A03F01F07B9405B097A
:10B86400DAB100EB830007F09EFB2046FFF778FB7C
:10B874000C2707FB00508368002BC1D02046FFF73C
:10B884006FFB784305F800902046FFF769FB07FB40
:10B894000055A86804F0B8FBB2E7C94300EB830085
:10B8A40007F09DFBE1E703B0BDE8F08FD0850020F1
:10B8B4006F600100EC500100F496002097600100D5
:10B8C40010B5C1E900239DF808300C460B72FFF750
:10B8D40047FB0C22024B02FB00335C6010BD00BF2F
:10B8E400F49600202DE9F0474FF0FF3206464FF062
:10B8F400FF331848884607F0B3FA044638B34FF0CC
:10B90400000900F10C070121384607F0DCFA204653
:10B9140084F81890FFF724FB4FF00C0A0E4D0AFB35
:10B92400005046802046FFF71BFB0AFB0050C0F87E
:10B9340008902046FFF714FB0AFB00550321384604
:10B94400C5F8049007F0C3FA068080F80280204608
:10B95400BDE8F087E4880020F496002070B5064620
:10B9640090B00B4D01AC0FCD0FC40FCD0FC40FCD54
:10B974000FC495E8070084E807000E2E9DBF10ABA6
:10B9840003EB860656F83C0C024810B070BD00BFAD
:10B99400AC510100CA600100034B0146D3F83401E5
:10B9A40082689268104700BFC08400202DE9F041EE
:10B9B400044600F10C06304607F0B1FA278A054622
:10B9C400012F0AD83B4601211D4A1E4807F0E9FA17
:10B9D4002046BDE8F041FFF777BB3046022107F06F
:10B9E40096FA03780646052B23D00E3B012B23D968
:10B9F40040F6E473144A1549154806F0F8F8002394
:10BA040083F31188BFF36F8F0323184602DF4FF0CF
:10BA14000208022321460F4A307807F0D2FA18F0C0
:10BA2400020FD5D06369278213FA85F5E560BDE876
:10BA3400F0814FF00308ECE74FF00108E9E700BF9D
:10BA44008E5F0100EC500100AA5F0100D26001008A
:10BA54000C600100A454010010B50C4604F060FF12
:10BA6400237E012B21D1E3681B78052B0AD00E3BE2
:10BA7400012B0AD82046FFF799FF002404F064FF45
:10BA8400204610BD2046FFF791FF21460C4807F0E1
:10BA9400EBF90C490C4808F03AFE031EEDDA0121DB
:10BAA4000A4A0B4807F07DFAE7E70121094A0848EA
:10BAB40007F077FA2046FFF707FB6FF01504DDE780
:10BAC400D48500204C860020D09100202D5F0100F9
:10BAD400EC500100EB6001002DE9F84F3D4C00AF44
:10BAE40004213D4807F05FFA3C4DE2793C4B204687
:10BAF400012A88BF1D466E46FFF7D0FC8AB06A460D
:10BB0400384BA346C2E905350125374BD061136292
:10BB1400364B4FF42351364842F8103F07F04EFAA3
:10BB2400DFF8D080B546DFF8C890334EE3790BF1E7
:10BB3400070B9D4238DB94F870506E462846FFF799
:10BB44000DFF8CB06A46B4F87210B4F87630C2E9CE
:10BB540007514FF400755362DFF8A0C0284BC2E9C7
:10BB640005C015854FF4535142F8103F204807F0A3
:10BB740025FAB54694F871603046FFF7EFFE8AB0B7
:10BB84006A46B4F874301F49C2E907631E4BC2E920
:10BB9400051095844FF43351154842F8103F07F0CF
:10BBA4000DFABD46BDE8F88F5846FFF777FCEA4624
:10BBB4008AB06A4640F20133C2E90565D061138454
:10BBC4004FF41351484642F8108F07F0F7F9013546
:10BBD400D546ABE7C084002094850020ED6D0100BC
:10BBE400FF60010003610100000201030400000280
:10BBF400EC50010004000001126101002361010006
:10BC04000600000161610100050000010048704761
:10BC1400B7560100014804F09DBB00BF3C860020DC
:10BC240038B502460B462B4DD5F81C1109B9002036
:10BC340038BD05F1F80004F00BFA0028F7D1002212
:10BC4400002305F58E7004F0ADF9044668B940F69A
:10BC5400B733214A2149224805F0C9FF84F31188EA
:10BC6400BFF36F8F0323184602DFD5F810315BB1A1
:10BC740001211C4A1C4806F0BBFDD5F81001FFF752
:10BC840023FA0023C5F81031204607F018F9C5F847
:10BC940010012046FFF780FE0346C8B10121134A74
:10BCA400114807F07EF9124804F0AEF92046FFF778
:10BCB40057F90C220F4B02FB0033588818B1224667
:10BCC4001F21FFF763FD2046FFF7FEF9FFF7A2FFF0
:10BCD4000120ADE7C0840020AA5F0100FF5E0100DF
:10BCE4000C600100AA610100EC50010088610100B0
:10BCF400B8850020F49600202DE9F04F87B0054662
:10BD040016460C4600AF31B9FFF7ECFD044648B9BE
:10BD14006FF0680092E0887AFFF71AF9534B834278
:10BD240040F09E8001220021384608F051FC204654
:10BD3400FFF716F90C23DFF838A103FB00A0876096
:10BD4400204607F0BCF801464A4808F028FCFFF7F3
:10BD540061FF09F019F8484B1A58484B9A4220D110
:10BD6400DFF81CB1434808F02FFC002181464FF452
:10BD7400A020FFF755FF804688B94FF4D473594685
:10BD8400404A414805F033FF2946404805F02FFF5B
:10BD940088F31188BFF36F8F0323184602DF4C45E5
:10BDA400E0D14FF4A0220023384604F051F9804634
:10BDB40098B14FF4D773334A3549334805F017FF28
:10BDC40042462946334805F012FF002383F31188C5
:10BDD400BFF36F8F0323184602DF2046FFF7C0F836
:10BDE4000C2358431AF80080B8F1000F30D06E4687
:10BDF4008AB06A46284BC2F81C80C2E90535274B35
:10BE04004FF43251136240F202439384244B254889
:10BE140042F8103F07F0D2F82046B546A8F10908C9
:10BE2400FFF752F9B8F1090F0FD8DFE808F01C0E3C
:10BE34000E0B050E0E0E0E196FF00B001C37BD46CF
:10BE4400BDE8F08F6FF00C00F8E76FF00400F5E741
:10BE540016B134600020F1E72046FFF735F9F9E721
:10BE64006FF01500EAE76FF06E00E7E7E488002062
:10BE7400F4960020DC85002008000000F0940020E7
:10BE8400C5610100AA5F01000C600100CD610100E1
:10BE9400ED610100F66101003B620100ED6D0100FE
:10BEA40005000001EC5001002DE9F04182B000AF23
:10BEB400002140F603403A1DFFF71EFF0446002808
:10BEC4006ED17868C3681B7853B9BC4BD3E8AF2FE5
:10BED40002F00902D3E8EF1FC3E8E42F002CF9D1E4
:10BEE400FFF7F2F8002141F203003A1DFFF704FFC7
:10BEF4000446002854D17A68B14DD16805F178031D
:10BF0400D1F80100D1F8051003C31046FFF7DCF89F
:10BF1400214641F201003A1DFFF7EEFE04460028D7
:10BF24003ED17868C3685A7885F870205A88A5F895
:10BF340072201A7985F87120B3F80720A5F87420C7
:10BF4400B3F80530A5F87630FFF7BEF8214641F284
:10BF540002003A1DFFF7D0FE044608BBD7F804C020
:10BF640005F18006DCF80C20531C41323446186875
:10BF74005968083303C493422646F7D16046FFF755
:10BF8400A3F800F0D5FE044650B995F87C30580665
:10BF94000BD401218B4A8C4806F02AFC6FF0120462
:10BFA40020460837BD46BDE8F081214642F2030031
:10BFB4003A1DFFF7A1FE04460028F1D17A68834BAD
:10BFC400D168D1F80100D1F8051003C31046FFF77A
:10BFD4007BF81F23A5F8E83095F87C30990617D430
:10BFE400022140F66D40FFF77DFC064600284AD04A
:10BFF40002210C3006F06BFF0123447022460370CB
:10C00400314640F66D40FFF777FE04460028C7D15D
:10C0140095F89C301A0712D5002142F21C003A1DF3
:10C02400FFF76AFE04460028BAD17868C368D3F8DB
:10C034000120D3F80530C5E93823FFF745F8082176
:10C0440042F20100FFF74EFC0446E0B108210C3037
:10C0540006F03DFF022600222146067042708270DF
:10C06400C270027142718271C27142F20100FFF723
:10C0740043FE0446002893D1082140F60140FFF70F
:10C0840031FC804610B96FF0680489E708210C3050
:10C0940006F01DFF80234370202304708470047114
:10C0A400447184712246C670C371414640F6014012
:10C0B400FFF722FE044600287FF472AF01463A1DC2
:10C0C4004FF60140FFF718FE40B1414A02213E48B5
:10C0D40006F08EFB00F0B4FB044661E77B686E4615
:10C0E400DC688AB0B4F80130032B96BF394A3A4968
:10C0F40052F823106A46D3614FF40073374813840F
:10C10400374BC2E9050142F8103F4FF413512E4852
:10C1140006F054FFB4F80120B546022AB4F80330FF
:10C1240049D1052B47D82F4A52F823106E468AB0BE
:10C134006A46D3614FF400732B481384284BC2E939
:10C14400050142F8103F4FF413511F4806F036FF23
:10C15400B546637994F806C0032B98BF234AB4F814
:10C164000760D4F809006C468CB094BF52F82310D1
:10C1740019496A46C2E9073C4FF40073DFF870E0DE
:10C1840093851C4BC2E905E1C2E909604FF4735180
:10C1940042F8103F0C4806F011FFA5467868FEF7F8
:10C1A40093FF00214FF602403A1DFFF7A5FD044618
:10C1B40020B3114A8AE70849B8E700BF94850020F4
:10C1C400C08400205A620100EC50010098850020D0
:10C1D4007E62010094540100CA600100A262010061
:10C1E400040000017C540100BB6201006C54010096
:10C1F400D362010007000001006301007868C3688E
:10C20400B3F80130A5F8C130FEF75EFF95F8C130F0
:10C214005B077FF55FAF21464FF603403A1DFFF7FA
:10C224006BFD08B1044A51E77868C3685B7885F808
:10C23400C030FEF749FF4DE72963010073B52C4D6B
:10C244000646D5F8340108F07EF848B90121294A98
:10C25400294806F0CDFA6FF01204204602B070BDF2
:10C264006FF0020105F1D40006F0B9FE012106F0D9
:10C274009AFE10EA010437D1204B1E600A4605F1EC
:10C28400F80008F0A5F905F58E7008F07CF91C4853
:10C2940008F068FA6FF007034FF4966219491848DA
:10C2A400009404F05DF81849154808F086FAD5F8AA
:10C2B4003401164983681B689847044630B1034625
:10C2C4000121134A0C4806F06CFEC6E73EB9FFF79D
:10C2D400EBFD04460028C0D1FFF7FEFBBDE705F1E6
:10C2E400C40004F037F8B8E76FF07704B5E700BF8F
:10C2F400C084002052630100EC5001006C970020C0
:10C30400D091002070A100206A6301005DBA000092
:10C314007363010010B5FFF7C7FD044608B9FFF7C2
:10C32400DBFB044B1B681BB12046BDE810401847DB
:10C3340010BD00BF6C970020F7B5144B054693F968
:10C344009B300C46002B1DDA14B9204603B0F0BD17
:10C35400082C4FF0000142F2180001AA264628BF1B
:10C364000826FFF7C9FC0028F0D1019F3246F9687E
:10C374002846013108F057FC3846FEF7A5FE35443F
:10C38400A41BE1E76FF08500E0E700BFC084002054
:10C3940038B5042104460C3006F0B9FD0346408844
:10C3A4005D7818B122461978FFF7F0F935B10448E1
:10C3B40003F02AFEBDE83840FFF72CBC38BD00BFAF
:10C3C400B8850020B0B50446032100AF0C3006F058
:10C3D4009EFDE3680578197840F63543B0F801000E
:10C3E400984215D16C468AB06A460F4B0F48C2E991
:10C3F40005310F4B4FF41251D36140F201331384D2
:10C404000C4B42F8103F06F0D9FDA546BD46B0BD21
:10C4140010B12246FFF7BAF9002DF7D0064803F011
:10C42400F3FDFFF7F7FBF1E78F630100EC50010028
:10C43400ED6D010004000001B8850020F8B5064642
:10C444000024094DEF79E3B29F4202D86FF0010056
:10C4540007E02946304606F0D5FD0735631C08B1D0
:10C464002046F8BD1C46EEE7C084002070B5194E86
:10C4740006223146054608F0EBFB30B3062142F2B2
:10C484000500FFF72FFA044608B3062229460C30AC
:10C4940006F023FD2146002242F20500FFF72CFCA2
:10C4A400044648B110F10D0F04D102210A4A0B4889
:10C4B40006F0B0FD204670BD33462A6843F869296A
:10C4C400AA88B280012283F868200024F2E76FF082
:10C4D4006804EFE729850020CE6401000C510100B7
:10C4E40037B504460D4689B12846184906F08AFD39
:10C4F40060B9174A2968C4EBC4041151A318AA8867
:10C504009A80AA799A71002003B030BD684606F07B
:10C514003AFD0028F8D16846FFF790FF0028F5DAC5
:10C524000B4A0098C4EBC40410519DF80610BDF8E2
:10C534000400A31898809971002DE4D012592A6040
:10C544009A88AA809B79AB71DDE700BF935E0100F6
:10C55400C084002070B50446B1B9C0B11F4906F0CB
:10C5640051FDA0B92046FFF769FF00282FDA237890
:10C57400012B04D1A37903F0C003C02B07D0012100
:10C58400174A184806F046FD6FF0150070BD164DA9
:10C59400EB79012B1ED005F1D403D3E8AF3FDB07C1
:10C5A40007D4002CF0D020460C4906F02BFD0028BF
:10C5B400EAD1EE792146731C3046EB71FFF790FF08
:10C5C40008B93046E2E7EB79013BEB71DEE76FF047
:10C5D4007700DBE76FF00B00D8E700BF935E010044
:10C5E400DD6401000C510100C08400202DE9F341F9
:10C5F400044640B91A4A02211A4806F00BFD0020ED
:10C6040002B0BDE8F081002141F2090001AAFFF760
:10C6140073FB054608B1144AEDE7019E0622D6F8DD
:10C624000C80124908F10107384608F011FB28B1C3
:10C63400062238460E4908F00BFB18B93046FEF7BF
:10C6440043FDDCE7D8F801303046C4F80130BB883C
:10C654002570A4F80530FEF737FD0120D0E700BFB0
:10C664000B6501000C51010024650100A05E01006E
:10C674009A5E010007B56846FFF7B8FF044BD8710E
:10C6840018B169460020FFF72BFF03B05DF804FBE7
:10C69400C0840020F0B5304D89B0EC79002C53D122
:10C6A40095F8C26016F0010610D12C4A02212C48DC
:10C6B40006F0B0FCEC71162600240127EB79E0B2F9
:10C6C40098422CD3002B3FD000203BE06A46214601
:10C6D4004FF60940FFF710FB08B1224AE6E7DDF800
:10C6E40000C0DCF80C104B7823B96046FEF7ECFC74
:10C6F4001D4ADBE78B1C02AA01F1120417461868D5
:10C704005968083303C7A3423A46F7D11868344638
:10C7140038609B886046BB80FEF7D6FCCAE708AB4E
:10C7240006FB003353F8182C33F8143C6946CDF853
:10C734000120ADF805308DF80070FFF7D1FE01340B
:10C744000028BBD009B0F0BD0021084609B0BDE8FF
:10C75400F040FFF7FFBE00BFC08400204265010027
:10C764000C5101006E6501008E6501002DE9F04158
:10C7740090460E461D46024650B14BB13103047833
:10C7840010D5730708D501212A4A2B4806F042FC2C
:10C794006FF01500BDE8F08106F046FC0028F9D1E1
:10C7A400012341E0F70730D5244FB8F1000F13D02F
:10C7B400B0060AD4C4EBC403FB5C012B13D02B706A
:10C7C400B20620D543F002030BE097F8D83059069F
:10C7D400F0D46FF08500DDE7C4EBC403FB5C012BF0
:10C7E40001D02B700FE0072101FB047110460131C9
:10C7F40006F012FC0028CDD1C4EBC4043B5D2B70C1
:10C80400B8F1000FDCD10020C4E773070ED50B4E3E
:10C81400C4EBC407F35D012BE3D1072111FB043101
:10C82400314406F0F9FBF35D2B70B3E706F0FCFB33
:10C83400B6E700BFB76501000C510100C0840020B9
:10C8440038B5104DEB7913B10024204638BDFFF7FD
:10C8540011FF044628B10C4A01210C4806F0DAFB0A
:10C86400F3E7EB79002BEFD1FFF714FF0446002820
:10C87400F1D1681CFFF7FAFD04460028E5D0044A0C
:10C88400EAE700BFC0840020D66501000C51010016
:10C89400F56501002DE9F74F0C46202192460090E2
:10C8A400FFF720F80546002855D020210C3006F06B
:10C8B4000EFB20228146002108F0C2F9002609F16E
:10C8C400010B04EBCA0A0023D4F800806268934287
:10C8D4000CD30834A245F6D100222946009889F8E1
:10C8E400006003B0BDE8F04FFFF706BA98F80120E6
:10C8F400B01C81181F2998F800C015D9BCF1090F84
:10C90400C0F11F0201D1002A0CDC0121134A144892
:10C9140005F06EFF2846FEF7D7FB6FF0150003B055
:10C92400BDE8F08F4FF0080CD7B2791C0BF8061055
:10C93400711CC9B20BF801C0D8F804105BFA80F07E
:10C944000193023708F06FF9019B3744FEB20133BB
:10C9540008F10808BAE76FF06800E0E7186601001C
:10C96400D4500100F8B545680646690535D4046914
:10C9740014B115F0010330D0194F3078FB7983429C
:10C984002BD9C0EBC00007221649384408F060F9DF
:10C99400A8B115F0010306D197F87020082A02D82F
:10C9A400B2689F2A19D915F0300F09D0ACB1EA0644
:10C9B4000AD405F46035B5F5603018BF0120F8BD20
:10C9C400EB0601D4002CF4D1D6E902239A4204D810
:10C9D4001F2A02D9B3F5804FEBD90020EFE700BF3F
:10C9E400C0840020935E01002DE9F04FD1F810A01F
:10C9F4008BB0BAF100050646804818BF012505939F
:10CA040006F03CFB40070C46934640F1EC80084698
:10CA1400FFF7A8FF28B96FF0150528460BB0BDE84D
:10CA2400F08F204606F017FB81460028F3D006F16C
:10CA34001008404606F022FB0106C0F3C01300F1C3
:10CA4400D580CDE90733CDF82330A3686068ADF80D
:10CA54001830E3686FF40071ADF81A3006F0FFFA8D
:10CA64008DF82500654806F00CFB2378644A337082
:10CA740082F86F3030462A4661680DF11D03FFF7D6
:10CA840075FE05460028C8D106F10903BAF1000F66
:10CA940018D0226920461168C6F809109188998037
:10CAA40092799A7106F07DFB63680746DA071BD416
:10CAB400980503D4149B0BB9022F4ED102238DF891
:10CAC4001C3023E04F4A20461168C6F809109188AB
:10CAD400927999809A7106F064FB63680746DD07D2
:10CAE400E6D58DF81CA011E013F0100F0CBF012344
:10CAF4000423A9468DF81C3023691A68CDF81E203A
:10CB04009A88ADF822209B798DF824300F2142F2C7
:10CB14000600FEF7E7FE054600286AD00F2206A9A4
:10CB24000C3006F0DAF92946002242F20600FFF73B
:10CB3400E3F8054600287FF470AFBAF1000F12D075
:10CB44003046012106F03DFB064620B301212E4A62
:10CB54002E4805F04DFE35465FE70323DDF850907F
:10CB64008DF81C30D2E7159B594600933046CDE929
:10CB74000197149B059A06F0A2FA00283CD130468E
:10CB8400012106F01EFB06460028DFD1666886F008
:10CB94000206C6F34006404606F001020E2106F0E6
:10CBA4007BFA7B1E5A425A414046082106F074FA29
:10CBB400B91E4A424A414046092106F06DFA6268AC
:10CBC40040460A2102F0010206F066FA4A4640464F
:10CBD4000B2106F061FA62680D214046C2F380021F
:10CBE40006F05AFA19E76FF00A0516E76FF07705B1
:10CBF40013E76FF0680510E705460EE794850020FB
:10CC0400C0840020935E010031660100D45001000D
:10CC140073B51546069A0C46CDE900322B460A46F2
:10CC240001461148FFF7E0FE21460646002340F284
:10CC340001109D4202D1304602B070BD0A88824282
:10CC440004D14A6812B11278D20702D401330831F0
:10CC5400EFE70649064807F08BFD4FF470220023E6
:10CC6400034803F025FCE6E7D8840020B1CC00009B
:10CC7400F084002008B50B4806F0C8FA6FF4804130
:10CC8400094806F0FEF9084806F0F8F903461B06C1
:10CC9400C0F3C01005D5BDE808400021014806F0E6
:10CCA40090BA08BDD8840020E884002010B5FFF7AE
:10CCB400E1FF034630B1BDE810400221024A0348B7
:10CCC40005F09FBD10BD00BF4C660100D4500100AB
:10CCD40030B58DB0202104A8FFF72EFB0446E8B937
:10CCE40007F0B4FE4FF47A75A0FB053205FB012171
:10CCF400DB0B43EA4143C90BCDE90231082320226F
:10CD0400009308486B4404A905F0DEFF30B9012103
:10CD1400054A064805F06CFD6FF0040420460DB08A
:10CD240030BD00BF789200207266010004510100FA
:10CD340007B508216846FFF7FFFA60B9082269467B
:10CD4400084805F0A1FF48B907480121074A05F042
:10CD54004FFD6FF0040003B05DF804FBFFF7B8FF6C
:10CD6400F9E700BF789200200451010089660100B0
:10CD740038B50D46044698B191B10B4A05F0BDFF94
:10CD8400431C07D1FFF7A4FF48B929462046064AA9
:10CD940005F0B3FF01280CBF00206FF0040038BD7C
:10CDA4006FF01500FBE700BF7892002038B50A7ECB
:10CDB4000C46022A05690CD0042A09D0BAB10D49DF
:10CDC4000D4806F02AFA2046FEF77EF9002038BD09
:10CDD4000522114604F10C0006F090F8228AE1685D
:10CDE400281DFBF795FF021EEDDA0449E8E701224E
:10CDF400EFE700BFB2660100F4500100C266010013
:10CE04002DE9F04F064600780C4604289046D2F8E7
:10CE1400109087B001F1FF3309D0052800F0898014
:10CE2400022840F0C380032B62D8644A02E0012B3D
:10CE340007D8634A0121634807B0BDE8F04F05F005
:10CE4400D7BC73783E2B31D1F778BB1E5F425F416C
:10CE5400B6F80130033CB4EB132FADF814302AD1EB
:10CE640037B300220023CDE90223DFF85CB1DFF8F9
:10CE740054A13946DDE902239DF81400FEF75CFB5A
:10CE8400054600B300F10C07022205A9384606F056
:10CE940024F8384606F047F884421CD90121009052
:10CEA40023464A4A474805F0B6FC3CE00027CFE752
:10CEB4004FF4A022D6E70121454A424805F098FCE8
:10CEC40007B0BDE8F08F002FFAD102215A46504630
:10CED40005F08EFCCDE72246F11C384605F0FDFF37
:10CEE40029464046D9F8003007B0BDE8F04F18474E
:10CEF400002200230320FEF70FFB0546B8B1D6F845
:10CF0400013000F10C070422384605A9059305F009
:10CF1400E4FFBDF81630053C9C423ED02D4A012169
:10CF2400284805F065FC2846FEF7CEF8C8E72A4AEB
:10CF340080E7032B01D8294A7CE700220023FEF76F
:10CF4400EBFADFF89CA00546A8B1D6F8013000F151
:10CF54000C070422384605A9059305F0BEFF0023FB
:10CF6400CAF80030BDF81630053CC3F30D039C42EB
:10CF740013D01C4AD3E76421DAF80020B2FBF1F3A2
:10CF840001FB13231BB918490E4806F046F9DAF8D9
:10CF940000300133CAF8003092E7384605F0C3FF89
:10CFA40084423FF67BAF2246711D96E702460F4945
:10CFB400044807B0BDE8F04F06F02FB977670100C9
:10CFC400DA660100F45001001F6701005467010094
:10CFD400FB660100B067010096670100D26701009B
:10CFE4007097002011680100F167010033680100A7
:10CFF40070B5056900200E4606F01AF9044630B1F2
:10D0040002461549154806F008F9204670BDE86B3C
:10D01400FBF7F0FD044628B110F1780F02D0024668
:10D024000F49EFE7E86B05F10C02291DFBF722FE1F
:10D03400044610B102460B49E4E74FF400420023D2
:10D0440005F1240003F004F8044610B10246064931
:10D05400D8E72E60D9E700BF47680100F45001000B
:10D064006C6801009C680100C0680100002238B5AA
:10D074001146056940F60340FEF73EFE044630B112
:10D0840002460F490F4806F0C8F8204638BD281D4F
:10D09400FBF712FE044610B102460B49F2E7E86BB7
:10D0A400FBF7C8FD044610B102460849EAE706F05A
:10D0B400B9F8044610B102460549E3E72860E4E7FD
:10D0C400E0680100F45001000669010031690100C3
:10D0D40055690100084B70B5C31A0D4607499B10EA
:10D0E400044659434022064806F0B1F82B4601464F
:10D0F4002046BDE87040184788970020B76DDBB61E
:10D10400404E0100402373B50B4C0093041B0B46A7
:10D114000D460A49A41061430646094A094806F027
:10D12400C1F8011E05DA30462B4602B0BDE8704056
:10D13400184702B070BD00BF88970020B76DDBB6FA
:10D1440011330100404E01002DE9F8430022012172
:10D1540006460520FDF7F6FB114801F089F9114B4D
:10D16400984219D101F094F900244FF01C090C27BE
:10D17400DFF834803569414609FB045004F0F3FFBD
:10D18400002807DB012307FB04551C44042CAB6770
:10D19400F0D10020BDE8F8836FF00400FAE700BF87
:10D1A400E9D200000000AD0BE85401007FB5002275
:10D1B4000123CDE9022304ABCDE90433094A6B46CC
:10D1C400CDF800D0CDF804D006F099F8002805DB9E
:10D1D4004FF480420023684602F03AFF07B05DF83E
:10D1E40004FB00BF4733010010B5EFF31184202383
:10D1F40083F31288BFF36F8F074A136823F0020189
:10D20400DB07116002D4012006F08FF984F3118842
:10D21400BFF36F8F10BD00BF289800200C22104B65
:10D22400014602FB0033002030B4D3E91C521867D6
:10D23400EFF31180202484F31288BFF36F8F9C6F67
:10D2440004F0C00444F002049C6780F31188BFF327
:10D254006F8F1DB12B4630BC0248184730BC704755
:10D2640088970020404E010010B4EFF31182202370
:10D2740083F31288BFF36F8F1748016841F00204EB
:10D284000460C80707D482F31188BFF36F8F0120AD
:10D2940010BC01F017B91149D1F80C04D1F80C14E1
:10D2A400C907F0D5EFF3118083F31288BFF36F8FB2
:10D2B4000B498B6F03F0C00343F002038B6780F3C9
:10D2C4001188BFF36F8F82F31188BFF36F8F002033
:10D2D40010BCFFF7A3BF00BF2898002000500040F7
:10D2E40088970020062812D8DFE800F0040F1111F7
:10D2F400110D0B00064B986F10F0070007D1FFF7D4
:10D304008DBF0220FBE70320F9E70120F7E7704710
:10D314008897002038B5012204461F49D1E8EF3F21
:10D32400C1E8E02F0028F9D133B91C491C484B60EF
:10D33400CB608A6004F02AFF631E012B1CD807F01F
:10D3440036FAD0B9174B1B78BBB10222164BC3F87F
:10D35400082303461449D1F81854D1F81824ED03CE
:10D36400F9D502F00302032A01D0012CF3D168B1EC
:10D3740083F31188BFF36F8F38BDEFF3118320223D
:10D3840082F31288BFF36F8F0120E3E70222064B7A
:10D39400C3F80423F0E700BF8497002074970020AB
:10D3A400A49700206B9A00200050004010B5044C54
:10D3B4002046FBF7F1FA2046FDF774FD002010BD6E
:10D3C400C9D3000073B5044603250F4E8DF807003A
:10D3D400012200200DF1070102F03EFB20B10123E0
:10D3E4003370204602B070BD3378002BF9D0013D74
:10D3F40008D007F0DCF90028EAD10021422003F02C
:10D404004DFBE5E73570ECE76A9A0020F0B540681B
:10D4140001F01F04057B87B044EA45140569002D1B
:10D4240063D0B2F5001F00F1100506D1214628464D
:10D4340006F01BF9002007B0F0BD0027B2F5800FFD
:10D4440001AE0197776039D1B3F1007F14BF052392
:10D4540004238DF804300023CDE904630393836827
:10D4640023FA01F111F001011AD1B2F1A07F17D111
:10D4740004F01F03620903F180032AD0012A3AD180
:10D484001E4A52F82330DB070AD40DF10306324654
:10D494002146284601F078FC194B98421BD002968D
:10D4A4002146284603AA01F0CFFA164B98421FD111
:10D4B40001222146284601F0E7FCBBE7B3F1C06F27
:10D4C40005D0B3F1007F14BF01230223C1E7032376
:10D4D400BFE70D4AD5E73146284601F0C9FC094BA0
:10D4E4009842DCD06FF00B00A5E76FF08500A2E74F
:10D4F4006FF015009FE751F82330FFDE00288440C9
:10D504000400AD0B0000AD0B0025844038B5456820
:10D514002B69B3B11035284601F090FC044680B95C
:10D524000146284601F04EFC084B98420BD1224696
:10D534002846074901F01AFC224605212F20FDF751
:10D5440001FA002038BD6FF00400FBE70000AD0BCA
:10D5540059D50000430970B507D10B4B596821B167
:10D5640001250C68094E854001B970BD8A682A40BE
:10D5740002D030464B6898471CB1236821461C46AC
:10D58400F2E72346FAE700BF2C980020544E01002E
:10D594002DE9F04340F206354668D00648BF032023
:10D5A400337B02EA050558BFC2F3401087B001F08F
:10D5B4001F07B5F5837F144647EA43178DF8030028
:10D5C40044D00FD8062D18D007D8B5B1022D3FD0BE
:10D5D4006FF0150007B0BDE8F083B5F5807FF7D193
:10D5E40001250AE040F20222954233D0B5F5407F8E
:10D5F40032D0B5F5007FEBD102250123220303FAD3
:10D6040001F12BD573689960326972BB07F01F036F
:10D614007F0928D0012F75D13C4A02EB830284F4A0
:10D624008033D2F80012C3F30043C4F3404444EA05
:10D63400430421F4706144EA800421F00F0144EAB8
:10D6440005230B43C2F800320020C3E70725D4E7C3
:10D654000425D2E70525D0E70325CEE7630344BFBD
:10D664007368D960D0E72A4AD7E71036394630467E
:10D674000DF1020201F088FB14F4403F80460CD106
:10D684003946304605F0EFFF224B9845DCD1304651
:10D694009DF8021001F0E0FBD6E74FF0000901AB62
:10D6A4003946304603AACDE90439CDE90199CDF8CC
:10D6B4000C9001F0C9F9174B984289D114F4003346
:10D6C40015D09DF8033084F48034C4F300448DF8FD
:10D6D4000E3039464B46304603AA8DF80C508DF86F
:10D6E4000D4001F0A7FA0B4B9842CDD070E7CDE97D
:10D6F400043339460DF10303304603AA039301F0C2
:10D70400A3F9F0E7803352F82330FFDE0028844089
:10D71400002584400000AD0B10B504460269A2B098
:10D72400C2F880001F49002001F010FC00220121F2
:10D734002A20FDF707F964688422002101A807F074
:10D744007FFA6368B3F5803F04D30221164A174871
:10D7540005F04EF82368B3F5803F04D30221144A40
:10D76400124805F045F800230120219301AA6168BD
:10D774000432D940C90744BF00FA03F142F8041C3B
:10D784002168D940C90748BF00FA03F103F1010336
:10D7940048BFD163102BEAD101A801F0EFFB0020B0
:10D7A40022B010BD91D80000FC6901004451010071
:10D7B400286A010038B50F290C4605693CD843682E
:10D7C4001B68CB40DB0737D5D5F88430CB4003F05A
:10D7D40001031AB9EBB96FF077002CE0002BFAD1F2
:10D7E40055F8213023B90221154A164805F000F8EE
:10D7F400D5F8843013B92A20FDF774F80122D5F83E
:10D804008430A2401343C5F88430E0B201F0D6FB63
:10D814000AE0C8B201F0DAFB0122D5F88430A24054
:10D8240023EA0203C5F88430D5F8843013B92A20DA
:10D83400FDF766F8002038BD6FF01500FBE700BF68
:10D84400546A01004451010038B505460C4622B122
:10D8540002210C4A0C4804F0CBFF0F2C0ED86B6845
:10D864005B68E340DB0709D501230020A400E4B290
:10D8740004F1804404F52834236038BD6FF01500AA
:10D88400FBE700BF846A01004451010070B5D1F880
:10D8940080600F2804460D46736803D81B68C34094
:10D8A400DA0704D402210E4A0E4804F0A1FFD5F889
:10D8B4008430E340DB0704D402210B4A094804F016
:10D8C40097FF05EB840255F824503DB121463046BC
:10D8D400AC46BDE870400023126C604770BD00BFC9
:10D8E4009F6A010044510100BB6A01000123834087
:10D8F40070B5DC430B4AD2E8EF1F01EA0405C2E825
:10D90400E65F002EF7D14FF4803282400648C0F81B
:10D914000823BFF35F8FBFF36F8F0B4214BF012047
:10D92400002070BDC89800200050014070B40E491A
:10D9340022F07F46D1E90034D01AC31844F1000420
:10D94400C1E90034A6F50013B3F5400F09D2074B23
:10D954001B681A0A1B069C19054B42F10005C3E912
:10D96400004570BC03F030BAD0930020CC9800205E
:10D97400D8930020D9B101230D4A8340D2E8EFCFD8
:10D984004CEA030CC2E8E1CF0029F7D14FF480330D
:10D99400084A8340C2F80433074BD3E8AF3FC3407F
:10D9A400DB0742BF4FF40012044BC3F80021704759
:10D9B400C898002000500140C098002000E100E019
:10D9C400C3B202489B001844704700BF4051014055
:10D9D400024B00F5A87053F8200070470050014036
:10D9E4000D4B1868010A0006BFF35F8F0B4BD3F889
:10D9F4000435181841F10001B3F5801F0AD2084B11
:10DA0400D3E90023904271EB030303D210F1807039
:10DA140041F10001704700BFCC9800200050014044
:10DA2400D89300202DE9F04F85B016461F460446D2
:10DA34009DF840A0FFF75AFF0190FFF7D1FFB042D5
:10DA440071EB070352D23B4B301A67EB010198424A
:10DA540071F100014DD2384B03EB0413D3E90223D7
:10DA64009F4208BF964258D04FF48038334908FA91
:10DA740004F8204626F07F4BC1F8488305F0C3FC28
:10DA84004FF00309584604F15005AD00ADB205F15D
:10DA9400804504F5A87305F5A8350293029A20F091
:10DAA4007F4341F82230C1F84483D1F80435244A35
:10DAB400C01A033820F07F4090422ED9286868B1FC
:10DAC400D1F80435A3EB0B0020F07F40B0F5000F34
:10DAD400039322D9204605F096FC039BBAF1000F6C
