:1080000060B7002059A80000652E010045A80000B7
:1080100045A8000045A8000045A8000045A80000AC
:108020000000000000000000000000001DAA000089
:1080300045A8000000000000D5A9000045A80000E8
:10804000ADAB0000ADAB0000ADAB0000ADAB0000D0
:10805000ADAB0000ADAB0000ADAB0000ADAB0000C0
:10806000ADAB0000ADAB0000ADAB0000ADAB0000B0
:10807000ADAB0000ADAB0000ADAB0000ADAB0000A0
:10808000ADAB0000ADAB0000ADAB0000ADAB000090
:10809000ADAB0000ADAB0000ADAB0000ADAB000080
:1080A000ADAB0000ADAB0000ADAB0000ADAB000070
:1080B000ADAB0000ADAB0000ADAB0000ADAB000060
:1080C000ADAB0000ADAB0000ADAB0000ADAB000050
:1080D000ADAB0000ADAB0000ADAB0000ADAB000040
:1080E000ADAB0000ADAB0000ADAB0000ADAB000030
:1080F000ADAB0000ADAB0000ADAB0000ADAB000020
:10810000ADAB0000ADAB0000ADAB0000ADAB00000F
:10811000ADAB0000ADAB0000ADAB0000ADAB0000FF
:10812000ADAB0000ADAB0000ADAB0000ADAB0000EF
:10813000ADAB0000ADAB0000ADAB0000ADAB0000DF
:10814000ADAB0000ADAB0000ADAB0000ADAB0000CF
:04815000ADAB0000D3
:1081540010F8012B11F8013B012A28BF9A42F7D0ED
:10816400D01A7047034611F8012B03F8012B002A9B
:10817400F9D17047034613F8012B002AFBD1181AD2
:10818400013870472DE9F04788B0032102AF644AF3
:10819400644809F06EFA0321634A624809F069FAF7
:1081A4006C4688B002AA0326604B614D5361956109
:1081B40042F8106F00234FF4C8515A4801F014FCE0
:1081C400A546DFF8708140460CF02FF938B901213B
:1081D400594A544809F04DFA4FF0FF3422E088B070
:1081E40002AA564BC2E9053542F8106F00234FF43A
:1081F400C8514C4801F0F8FBA546D8F81020D8F82F
:1082040008101368404643F0806313600B684C4ABF
:108214001A219847041E0ADA01212346494A414893
:108224000AF057FB20461837BD46BDE8F0873146B3
:10823400454A3C4809F01DFA3146444A394809F098
:1082440018FA002004F0A2F8034628B1404A01219C
:1082540034480AF03EFBBFE74FF0010831463D4A7F
:10826400304809F006FA31463B4A2E4809F001FA33
:10827400DFF8E8C03C1DBCE80F000FC4DCF8003098
:10828400022223603649374BCDF80080381D04F0B4
:1082940067FD044610B1344A0346D8E73146334AF1
:1082A400204809F0E6F9324EDFF8C880DFF8C890BC
:1082B4003378D3B1EA4688B002AA304BC2E9053517
:1082C400032342F8103F00234FF4C851154801F02E
:1082D4008BFB0122D5461A21164809F0CCF900215E
:1082E4004FF4004008F030FCE2E794F00104EA4661
:1082F4008AB014BF4146494602AAD16140F2013115
:108304001F4811841F49C2E9050542F8101F4FF4A4
:108314001451044801F068FB2246D546DBE700BF50
:10832400B0560100A8510100BF560100E4560100F7
:1083340062580100304F01000A5701002357010021
:1083440001000A00455701006757010077570100F3
:1083540091570100B0570100C65701006052010057
:10836400E0520100D8520100DE5701000358010019
:10837400B49900203E580100AC5601002458010075
:1083840041580100040000012DE9F04F91B0009321
:1083940002F004030293C2F3C203013384070546C7
:1083A4000E46DDF868900392059340F0BB81041DEE
:1083B40030B1072909D86FF01B0011B0BDE8F08F68
:1083C40001F00706341DC6F10806009B4FF00008B3
:1083D4004FF0040A591E4FF0FF3347460193C3463A
:1083E4005346CDF810800DB1009A226005980028FC
:1083F40000F3E8809848009A824203D39748824267
:10840400C0F0E080039AA4EB050E92074FEA9E00A9
:1084140000F103810F2F00F2B180002D00F00581DF
:1084240007F140020DEB020C019A0CF8200C0CF839
:10843400102C049801300490E7E07A285DD84B288A
:108444000ED8472859D829282DD8252852D054D8B1
:1084540020287AD02338D0F1000B4BEB000B74E0CA
:108464004C382E2849D8DFE800F07048484848487E
:108474004848484848484B48484848484848485964
:10848400484B4B595959704B6D487048184B184814
:1084940048827F4B48484B487F0000204FF0000B38
:1084A4004FF0040A38E001222A38C0B202FA00F080
:1084B40010EA0E0F49D110F0625C2FD110EA020BC2
:1084C40043D06046013C5444B4FBFAF40AFB04F480
:1084D400002D61D0A3EB050CA444B4453FF66BAF6B
:1084E400002868D1042B47D159F8043B23600423A6
:1084F40004342AE0019A013A01924FF0000B24E07F
:1085040011F8010C6C2834D1002011F8023C834688
:108514006C2BC5D14FF0080A5346D3E709F107097C
:1085240029F00709073424F00704F9E802AB35B150
:1085340006982044B0423FF63EAFC4E900AB4FF08A
:10854400000B08344FF0080A534611F8010F0028B5
:1085540078D0BBF1000F7FF470AF2528F5D14FF030
:10856400010B019B013301934FF0040AECE75846D9
:1085740094E700208346A5E7082B02D06FF015008E
:108584001BE709F1070929F00709F9E80223C4E9FF
:10859400002308230834D8E768B9042B02D109F171
:1085A4000409A4E7082BE9D109F1070929F007090F
:1085B40009F10809EDE7059A013A059259F8042BE7
:1085C400009210E7039A900720D54FF0010CA4EB1A
:1085D400050E4FEA9E00BEF5007FCFD20F2FCDD8F7
:1085E400F5B107F140020DEB020E019AC0B20EF88C
:1085F400200C0EF8102CBCF1000F3FF41AAF60F001
:108604007F000EF8200C08F101080137C5F10802BB
:108614004FF6DA7E0434069297E74FF0000CDAE75F
:10862400BCF1000F01D00136EFE7029802360028B2
:10863400EBD10098CDE90631FFF79CFDDDE9063169
:108644000644E2E7631BB3F5806F97D245B9A6F100
:108654000804E018B1E600BF844E01006870010010
:10866400029A9B0828602B709DF81030C2B1EB7001
:1086740085F80280B8F1000F05D0002208A8C5F1E2
:10868400010C97420ED14FF0000AC5F101030DF120
:10869400200901930DF1300B574512D1601B8CE674
:1086A4006B70E5E710F8013B190608D504EB0C0ED6
:1086B400B64503F07F033FF67EAE04F8013B01327A
:1086C400DFE7B8F1000F03D099F90020002A17DB87
:1086D400029BD3B11AF80B2004F8012B0022019B52
:1086E40098182044B0423FF666AE99F8000000990D
:1086F40004F8010B204603920CF007FB039A144480
:108704000AF1010A09F10109C6E799F8002055F8B0
:1087140022300093029B009845F82230FFF72AFD8F
:10872400421CDCE76FF00D0047E600BF2DE9F04F77
:1087340097B000AFD7F880B03B62CBF3C0030446D8
:10874400894690F802A0FA62BB6141B94578007885
:108754000AEB800020444D4517D8A0EB0409E378C8
:10876400FB61BAF1000F02D01BF0010F16D1FB69B7
:1087740053BBFB6A1BB1494620463A6A98474D46AB
:1087840028465C37BD46BDE8F08F461C3046FFF7EF
:10879400F1FC0130304409F10109DCE76268237817
:1087A4007A62FA6A9900796104EB8301002A40F045
:1087B40001810E464FF000084D4601EB0A094E4573
:1087C4004CD101EB0A0610E01BF0020FD1D0237844
:1087D4009A007A61626804EB83017A62FA6A002A79
:1087E40077D14D46904601EB0A061BF0050F0CBFEE
:1087F40002230123FB62FB6906EB430A0BF002032D
:10880400BB625645BCD016F8021B16F8013C54F85E
:108814002390AF4B994502D3AE4B994536D3BB69F0
:10882400002B40D0786A09F014FA00283BD0E946BE
:108834008AB06A46A84B53617B6AC2E906314FF499
:1088440000731384A54B42F8103F00234FF41251D8
:10885400A34801F0C9F8023DCD46D2E716F8013B22
:10886400F96254F82300FFF785FCD7F88430F96ADD
:1088740001304BB1D7F8883098453EBFD7F88430E3
:1088840023F8180008F10108054498E7BB6923B1EF
:10889400786A09F0DEF90028C9D11BF0010F05D16F
:1088A400FB6AED1AADE7BB6A002BAAD04846FFF776
:1088B40061FCD7F8843053B1D7F8883098453FBF6E
:1088C400D7F88420431C22F8183008F10108054425
:1088D40097E7BAF1000F73D01BF0040673D0D046AB
:1088E400002607F1480052463B61B9620CF00DFACC
:1088F400B96A3B6901EB0A02BA62FA69F969520082
:10890400FA60BA6A02EB41023A610BF00202BA6001
:108914003A69B96A8A4258D162781BF0020F18BFCB
:1089240000217A6208BF4FEA5801B2181BF0010F08
:10893400D2B240F09F801BF0040F14BF40460020C9
:10894400BB616270A070E17020463A6A7969FB6A83
:108954009847051EFFF614AFBB69414623707B6A36
:108964003A6A6370FB6984F802A0E37007F1480077
:10897400FB6A9847B0F10008C0F2B4807B69A9EBA8
:108984000A01C91AFB683A6AC91AD7E90A0398475F
:108994000028C0F2A9804FF0000BA84408EB0005A2
:1089A40007F1380AB34567D300213A6A0846FB6ADF
:1089B4009847E5E656464FF0000807F1380092E77D
:1089C4005646D04696E7B04694E7BA6A12F8021BB8
:1089D40012F8015CBA6254F825003D4A904202D371
:1089E4003C4A90421ED3BA6932B1786A7B6009F07E
:1089F40030F97B6800288BD1BA6802BB08F12802E1
:108A040007F1300C08F10100944407F1580208F111
:108A1400020852FA80F00CF8101C5FFA88F800F88B
:108A2400105C75E7BA693AB1786A7B6009F011F9AC
:108A34007B6800287FF46CAF1BF0010F09D006F1AE
:108A4400280207F13000711C161806F8205CCEB21B
:108A54005EE71BF0040F3FF45BAF08F1280207F157
:108A6400300008F1010102EB000808F8105C5FFA1D
:108A740081F84DE7002063E71BF80A3054F823908F
:108A840087F83730D7F88430FBB133F81B800121E5
:108A94003A6AFB6A07F137009847002824DB05444B
:108AA400B8F1000F06D14846FFF764FB00F1010856
:108AB4001FFA88F8414648463A6AFB6A98470028F4
:108AC40012DB05440BF1010B6CE7D7F88480DEE779
:108AD400844E010068700100775801000400000111
:108AE400F051010045464BE6054649E6014B186046
:108AF400704700BFF885002080B505460E4617462E
:108B0400984608F03FF803460CF0B0F90446DFF845
:108B14001890424649F8003039463046A84754F880
:108B2400090001F0FFFE00BF080000002DE9F04736
:108B3400058B04462807904611D4022905F0070541
:108B440040F0CC80204609F027FB78B10138218B16
:108B5400042811D8DFE800F0C2106D8595000129C2
:108B64000CBF45F0100545F02005258388F31188D6
:108B7400BFF36F8FBDE8F08701F0070AAA4500F044
:108B8400A5800027B9463E46A368002B00F0BC80B0
:108B940041F00801218388F31188BFF36F8FA16826
:108BA400002900F0BA800D68002900F0B680334631
:108BB40052462046D1F80480C047002D76D02B6859
:108BC40029461D46F0E701F007035A1F012A1BD866
:108BD400002221F00701062B276889B2C4E900228C
:108BE40009D13B4603E0628B013262831B68002B90
:108BF400F9D141F002012046218309F0CDFA002881
:108C04007AD041F0200176E0042B0AD121F007014B
:108C140089B22046218309F0BFFA10B141F0200146
:108C24002183218B01F0070AAA454FD00027B946BA
:108C3400AAE7236921F0070141F00601062DD3F8C4
:108C4400009021832DD1B9F1000F3FD041F00801EC
:108C5400218388F31188BFF36F8F20463949C847B1
:108C640029E021F00701236941F0040189B2042DB0
:108C7400D3F804902183E6D000274FF0040A3E463F
:108C840082E721F00701236941F0050189B2052D2E
:108C9400D3F808902183D6D000274FF0050A3E462A
:108CA40072E700274FF0060A3E466DE72B4687E73A
:108CB400B9F1000FD1D1EFF31188202383F3128887
:108CC400BFF36F8F238B23F008032383258BEA06DE
:108CD4002ED525F01003238305F007056669218B43
:108CE400002EBFF670AF00232768C4E9003321F0DB
:108CF400070141F001012183218B4FF0000901F0AC
:108D0400070AAA457FF440AF002F9CD041F0080128
:108D1400218388F31188BFF36F8F002FC8D03D687B
:108D2400394633465246204609F062FA2F46F4E7A4
:108D3400AB067FF51BAF25F02003238305F0070561
:108D440000E700BF2122010010B530B90B480C49DF
:108D540009F02DFB6FF0150010BD836833B9074887
:108D6400084909F024FB6FF00400F5E71B6813B110
:108D7400BDE8104018471846EEE700BF0052010056
:108D84002B5901003C59010010B530B90B480C496E
:108D940009F00DFB6FF0150010BD836833B9074867
:108DA400084909F004FB6FF00400F5E75B6813B1B0
:108DB400BDE8104018471846EEE700BF0052010016
:108DC4002B5901003C59010070B508B101B132B909
:108DD4000B480C4909F0EBFA6FF0150070BD84687C
:108DE4000CB1E56835B90648074909F0E0FA6FF0B7
:108DF4000400F3E741F8040BE368BDE8704018474A
:108E0400005201005A5901003C59010010B50446B2
:108E140030B91048104909F0CAFA6FF0150010BDB6
:108E2400006830B90B480D4909F0C1FA6FF0010030
:108E3400F5E783680BB11B6933B90648084909F0A3
:108E4400B6FA6FF00400EAE7616898470028E6D1B3
:108E54002060E4E70052010086590100975901009F
:108E64003C59010070B51346044630B91048114905
:108E740009F09DFA6FF0150070BD006830B90C4818
:108E84000D4909F094FA6FF00100F5E782680AB120
:108E9400956835B90648094909F089FA6FF0040064
:108EA400EAE70A46AC466168BDE87040604700BF27
:108EB4000052010086590100975901003C590100F4
:108EC400034A13680BB9526813600020704700BF4F
:108ED400FC85002030B50C460E4985B00291D0F8CF
:108EE400D4110546CDE9003100F1F0014FF0FF3314
:108EF400204606F0DBFA50B9012384F86C30D5F82B
:108F0400D03123B1204605B0BDE83040184705B044
:108F140030BD00BFAB24010038B50C4611460546F0
:108F240009F0C3FA034638B92846044909F0BDFAE2
:108F340003460020236038BD0120FBE7356F0100A4
:108F44002DE9F04F012381460569466887B005F590
:108F54006577D7E8EF2F002A03D1C7E8E13F00295E
:108F6400F7D10CBF1A46002240F0B480B368B16A4E
:108F740005F5F8781C1F104609F01BFB844272D8D3
:108F8400013A00F0A180B2FA82F24FF00044D440DA
:108F940072682046073222F00302C5F88822B16ABB
:108FA40009F007FBC5F88C02B36A404663430333F8
:108FB40023F0030302EB4302230103EB44030933CD
:108FC40023F0030303EBC403C5F880221A440832D8
:108FD400C5F87C227368C5F88442C5F878323F4BE3
:108FE400C5E9B363D9F80030C5F82432316800F01C
:108FF400DFF90446002834D1D9F810B0D9F804A018
:10900400D9F800300BF53A79059004934846DAE92B
:109014000734012B08BF103C0BF016FCDAF82400CF
:109024002F4904AB01EB80214FF480624846009342
:10903400234607F0EBF92B490BF536700BF0BDFB1B
:10904400DAE9050183685C684CB15B46264AA047AF
:10905400044630B9DAE9050183681B692BB96FF05E
:109064005704002129E0013285E70122984704468C
:109074000028F6D11D4B2846C5F8D0311C4BC5F845
:10908400D4311C4B0393D5F838320293D5F83032DF
:10909400CDE90083D5F89032B26AD5F8901300F088
:1090A4004FF904460028DCD105F1F00006F0A4FADB
:1090B4000028C5F898030ADB0221384609F029FA8A
:1090C400204607B0BDE8F08F6FF00B04C9E76FF0DE
:1090D4001504C6E76FF07704F2E700BF012501002D
:1090E400709A0020E7240100DB240100FD900000B9
:1090F4008D2601004725010013B5044640B1002325
:109104000122CDE90032074BD0E9091206F07EF9BD
:10911400236F1B6823B1606F02B0BDE8104018478D
:1091240002B010BD356F010013B50446084621692D
:1091340001F56571D1E8AF1F022910D193B1A0B137
:109144000121CDE900311346D0E9091206F05EF998
:10915400074B984208BF6FF00B0002B010BD6FF0D0
:109164000F00FAE76FF04C00F7E76FF00100F4E747
:109174002EF8FFFF2DE9F74388461546066906F5E4
:109184006573D3E8AF3F022B5FD1136823B96FF047
:10919400150003B0BDE8F0831B78002BF7D0D6F898
:1091A4009093B9F1000F33D106F5EC774FF0FF320D
:1091B4004FF0FF33384606F097FE30462A6801A97F
:1091C400FFF7AAFE019C1CB9384609F0A0F9DEE7B6
:1091D40005F1080323676B6984F86C906367646422
:1091E40060B1384609F093F921463046A36E2A68E7
:1091F400FFF770FE0020C8F80040CAE72022296863
:1092040004F148000BF0B8FD384609F080F9F1E7A5
:1092140030460F4909F049F904460028B7D005F152
:10922400080303676B6940644367002380F86C306C
:109234002022296848300BF09FFD22460121304648
:1092440000F060F80028D5D0A1E76FF00F00A0E788
:10925400356F010010B50C46006900F56573D3E85D
:10926400AF3F022B0FD189B10A4900F536700BF0DC
:10927400D0FA20460AF0BDFD7822002120460BF0EA
:1092840051FD002010BD6FF00F00FBE76FF00100EF
:10929400F8E700BF409600202DE9F04F05460E4642
:1092A40090460027D0F8C4A085B0AAF5BE74214624
:1092B4003046FEF74DFFE0B9114BA4F1480B029381
:1092C400DAF810303246CDE9008329464FF0FF33F7
:1092D4005846AAF5E27906F0E9F860B97823012244
:1092E40003FB079383F86C20DAF80C300BB1584673
:1092F4009847783417B105B0BDE8F08F0127D6E759
:10930400BB2601001FB5144690B18AB1012912D1C0
:109314000A4B00F1F0010293D0F8D43148320193A2
:109324004FF0FF332046009306F0C0F804B010BDA0
:109334006FF01500FAE70020F8E700BFBB26010034
:109344002DE9F04387B00E46DDE90E811446DDE9D0
:1093540010251F4630B329B3DFF850C000F1F009DF
:10936400002D08BF65469EB9CDE9034400F5E274BB
:10937400204605960AF0D7FF03ABCDE900432A4601
:109384003B464146484606F0B1F907B0BDE8F083D4
:10939400002241460E9248462A4607B0BDE8F043F3
:1093A40006F0FABA6FF01500EFE700BF9D920000D7
:1093B400F0B50E46044689B0002872D0436B0BB951
:1093C400394B436301232246E3630023D4F8981006
:1093D40004F1400042F8301FCDE901334FF0FF3370
:1093E4000093D4F89C300AF0D8F9304A06AB92E8DE
:1093F400030083E80300184605F00EFF0546D8B9BC
:1094040004F1340005F0EAFE0546A8B9616B28486A
:1094140005AA0AF09EF9054670B9059B9A6872B1CF
:109424000C33D4F89400C4F8A03009F075F9C4F8EA
:10943400D40030B96FF00B05284609B0F0BD0346DF
:10944400EFE7D4F8940009F067F9C4F8D8000028CD
:10945400F0D0D4F88C30D4F8A010C4F8A830042389
:10946400C4F8AC30C4F8C4300223A362114BB4F87E
:109474009420D4F8D470C4F8B810C4F8D010D4F838
:109484009010236204F1A403A4F8B020C4F8A470DB
:10949400C4F8C010A4F8C820C4F8BC00A661E362F4
:1094A400CAE76FF01505C7E7BC5901007452010003
:1094B400C65901001C5301002DE9F0470446074634
:1094C4004FF00109DFF8508014B93846BDE8F08741
:1094D40094FAA4F5B5FA85F509FA05F32E0108EB1B
:1094E40005156FEA030A24EA03042B7B002BEBD057
:1094F40058F806301B694BB9464473680422284661
:10950400196807EA0A0700F05BFADDE7284698477E
:109514000028D9D1F0E700BF5052010030B5002235
:1095240089B00F490F480BF04AFB002200230024A6
:10953400CDE906230E230C4DCDE903344FF44072DC
:109544002846CDE90144094B0949009407F04AF83B
:10955400084928460BF0A3F9204609B030BD00BFE6
:109564007D95000098910020088D002069980000E6
:10957400709E0020CE590100014806F09BBD00BF3B
:10958400A08800202DE9F04780461F480F4609F0C7
:1095940015F90646002830D000252846BDE8F08796
:1095A400237B6BB12368DB680BB1204698472368A3
:1095B4001B69D3B9636804222046196800F000FAD5
:1095C400013610344C45EBD3B8F1000FE5D0002D33
:1095D400E2D02846FFF770FF0546002FF7D00021A0
:1095E4004FF4A47007F0B0FAF1E72046984700283A
:1095F400E0D00AFA06F31D43E2E705464FF0010AFC
:10960400024CDFF80C90DDE7789600205052010000
:1096140060520100014B53F8200070475C53010075
:1096240008B5034608462BB1044A136000F072FCE7
:10963400002008BD6FF01500FBE700BF288600205E
:1096440010B5044C237813B9034806F033FD012305
:10965400237010BDB5990020A088002010B50446E1
:10966400094809F0ABF83CB1084BD3E8EF1F0139C6
:10967400C3E8E21F002AF8D105480BF0ACFABDE8B4
:109684001040044806F016BD709600207496002021
:1096940098910020A088002000200146034BD3E8C5
:1096A400EF0FC3E8E21F002AF9D17047709600203B
:1096B40070B5FFF7F1FF0546074C084EB44200D3DE
:1096C40070BD63685B792BB123685B6813B129466D
:1096D400204698471034F1E75052010060520100CF
:1096E40010B5044C0449204608F0F2FB034B1C60FF
:1096F40010BD00BF20880020485301006896002058
:1097040008B50023074A4FF400411370064A07487E
:109714001360074A1360FFF783FFBDE80840FFF7B3
:10972400DFBF00BFB699002070960020BD2701005E
:1097340074960020014600220023014808F0E9BB8A
:1097440020880020014808F07FBC00BF208800204A
:10975400024B0146186808F0CBBC00BF6896002095
:10976400014808F000BD00BF2088002070B5264BDA
:109774001878002847D0FFF7E5FF054670B1234B62
:10978400D3E8EF1F0139C3E8E21F002AF8D1204CC7
:10979400204EB4422DD32846FFF7DAFF1E4B1F4C50
:1097A4001B68002B19DD0BF0C3F94FF47A72A0FB90
:1097B400020302FB0131C30B43EA4143D4E9002015
:1097C4009B1A40F2E9324FEAD13161EB0001934236
:1097D40071F1000101D3FFF76BFFD4E9003213F5F7
:1097E4007A7342F10002C4E90032BDE87040FFF729
:1097F400B7BF63685B7923B12368294620461B6899
:1098040098471034C5E770BDB599002074960020C0
:109814005052010060520100709600209091002087
:1098240070B50D4D297861B90120FFF7ABFE0B4CE3
:109834000B4EB44206D3FFF799FF0028FBD1012356
:109844002B7070BD63685B791BB1236820469B68ED
:1098540098471034EDE700BFB6990020505201003C
:109864006052010000212DE9F0470846FFF78AFE07
:10987400044658B340F267684FF000090BF0F6FA5B
:109884001B4B1C4A1B58136033B11B4B1B68092B21
:1098940002DD1A4806F00EFC0025194FDFF85CA023
:1098A40044B12046FFF708FE044618B94FF0FF38CC
:1098B4004FF0FF39FFF75AFF064628B9B5B94246BB
:1098C4004B46504606F01AFC3546E9E74FF0FF38A0
:1098D4004FF0FF39D2E72B689B691BB10022284661
:1098E400114698471035BD42F5D3E8E7054DFAE730
:1098F400080000006C96002074960020A0880020C8
:10990400605201005052010013B5184808F056FF88
:10991400174B1B7873B1EFF31184202383F3128860
:10992400BFF36F8FFFF722FF84F31188BFF36F8FAC
:1099340002B010BD0F4B1B68002BF9D050B90022A8
:1099440000230D48CDE900234FF40042002307F023
:1099540081FBEDE70928EBD107480BF03CF90748F8
:1099640002B0BDE8104006F0A5BB00BF749600200D
:10997400B69900206C96002098910020A0880020C1
:1099840010B5064B04461B6898472146A06004485E
:1099940008F03BFBBDE81040FFF7B6BF2886002067
:1099A40020880020044A054B9B1AB1EBD30F34BF27
:1099B40052F8310000207047A851010050520100B4
:1099C400084B10B4C31A44681B1101332371436854
:1099D4009A7101224368196043685A7110BCFFF7F9
:1099E4002FBE00BF505201002DE9F04F8FB0C1F3DC
:1099F4004A2804AF0D469146B8607B600C0DB8F15F
:109A0400000F63D000264FF0040B4FF00A0A07F151
:109A14001403C7F80C80C7E907667E620193CDF88A
:109A240008B0CDF800A007F11C0332464846F96897
:109A3400FEF77CFEB0F5006F03461CD36C468AB07B
:109A4400D9F8041004AB26481A46C3E9050140F2CC
:109A5400FF71D9614FF400711984224B42F8103F11
:109A64004FF4125133462048FFF7BEFFA5462C376A
:109A7400BD46BDE8F08FC0F30A0804F1170018448E
:109A840020F0070080083B60FFF754FE68F353257D
:109A9400044690B13B6800F11001C7E9083607F1AC
:109AA4001403F961CDE900A3CDF808B048460F4A84
:109AB400F96807F11C03FEF739FE68F353252A46BB
:109AC40020467B68B96808F0ABFED0E704F11700C4
:109AD40020F007008008FFF72DFE0446EDE700BFE5
:109AE400E35901000400000108520100F9270100B4
:109AF4002DE9F04F87B00446DDE9105ADDE912790B
:109B0400934698460391BFB13B465246102100202C
:109B1400CDF80090CDF81490FEF736FCB0F5006F48
:109B240006460AD340F2FF730221174A174807B0CA
:109B3400BDE8F04F08F0CDBE3E4605F117003044B5
:109B440020F007008008FFF7F5FD04F007040BF090
:109B5400070BE40044EA8B1444EA462444EA05541F
:109B6400054640B13FB13B4652463146CDF80090E0
:109B74001030FEF709FC434622462846039907B0F5
:109B8400BDE8F04F08F04CBE225A01000852010013
:109B9400406820B1034BC01A40F3CF0070474FF028
:109BA400FF307047A85101000EB403B503AB53F85E
:109BB400042B01460448019301F02AFA02B05DF82F
:109BC40004EB03B0704700BF39290100CA0605D46D
:109BD4008B064CBF02490349FFF7E6BF704700BF3D
:109BE400346F0100336F01002DE9F04F89B09B46BB
:109BF400149B9DF84CA00693159B04460593169B55
:109C04000D469046179E0493BAF1000F00F09D8014
:109C140006F48073079308F0EBFD06F00209024690
:109C240000283ED020469149FFF7BEFF0746B9F110
:109C3400000F08D016F0440F35D12A4620468C492F
:109C4400FFF7B2FF074406F0010353B1894B2046E6
:109C540053F82A20884B8949002A08BF1A46FFF77F
:109C6400A3FF06F48073002B49D006F00803002BF1
:109C740063D1B8F1000F66D0424620468049FFF711
:109C840093FF0546069B3D44002B6DD1049B002B9E
:109C940073D1F30700F1E48031462046FFF796FFC5
:109CA400D8E00746C3E7774B18680028CAD0764B3C
:109CB4004FF47A791B684FF46161B5FBF3F5B5FB9A
:109CC400F0F300FB135509FB05F5B3FBF1F2B5FB0B
:109CD400F0FE4FF03C0C01FB123100FB1E55B1FBB2
:109CE400FCF309FB05F5B5FBF0F50CFB131120465D
:109CF4000091CDE901E56549FFF756FFA2E706F0BB
:109D04000803EBB1624B204653F82A206149FFF760
:109D14004BFF0546B8F1000F05D04246204658498E
:109D2400FFF742FF0544BBF1000FABD05A46204673
:109D34005949FFF739FF0544A4E74FF0000BE1E769
:109D440006F00805E6E745469CE7BBF1010F069BD4
:109D540006D1002B64D1049B002B7BD000250CE0A2
:109D6400002BF8D04D485CE04D48069B22464D49F7
:109D740007F03EFF049B002B68D0DFF82C81DFF84E
:109D84002C91049F3146102F204628BF10274FF0F6
:109D9400000BFFF71BFF5D4545DC059B494620464C
:109DA4001A78FFF701FF4FF0010B1BF0070F03D1E7
:109DB40041462046FFF7F8FE5F453BD9059B4946DF
:109DC400204613F80B20FFF7EFFE0BF1010BBBF15C
:109DD400100FEAD14FF0000B20463549FFF7E4FE9F
:109DE4005A46059B20469A5CA2F120015F2928BFB0
:109DF4002E223049FFF7D8FE0BF1010BBBF1100FF7
:109E04001DD01BF0070F03D141462046FFF7CCFEBF
:109E14005F455A46E5D841462046FFF7C5FEEBE7C5
:109E24001F485546A1E741462046FFF7BDFE0BF10A
:109E3400010BB0E720462049FFF7B6FEC5E7059BB6
:109E44003B440593049BDB1B04939AD1BAF1000FA6
:109E54007FF41FAF204609B0BDE8F04F08F05DBDA8
:109E64002046054A0549FFF79FFE15E75F5A0100A2
:109E7400635A01006C5301005A5A0100C762010081
:109E8400885A0100809600207C9600206C5A0100BC
:109E9400805301008C5A0100925A01006729010085
:109EA4003929010015B00000FF6E0100975A010026
:109EB4009D5A01009F5A0100FD6E010042F20F738A
:109EC40073B58B4228BF0B460568044605216846D6
:109ED4000D4A07F047F90646636828460B225B687B
:109EE4000A4908F00CFD63683246694628465B68F7
:109EF40008F005FD63681B2228465B68044908F0E6
:109F0400FEFC02B070BD00BFD1600100BE5A01006A
:109F1400A25A010000210123064A904206D8064AAB
:109F240001B901231360054B1860704701214008F3
:109F34005B00F2E740420F007C96002080960020F0
:109F44000122014B1A707047B7990020014B002081
:109F540019607047989600200148FFF7AFBF00BF13
:109F6400B053010010B5064B0C461868FFF752FBBE
:109F74002146BDE8104003460F220248184700BF9F
:109F840098960020B05301000122F8B5084B094D02
:109F9400094E1A70D5E900470CB92C60F8BD21466A
:109FA40030463A4600F01EF8241A0644F4E700BF8F
:109FB400B89900208C960020B999002010B9074B5D
:109FC40018707047064B1B781BB141F288300AF0B9
:109FD40027BAA420002106F0B7BD00BFB79900201E
:109FE400B89900202DE9F84380460E460424DFF892
:109FF40070901C4F99F8005095B905F0A5FD2846BE
:10A004003246414605F00EFD054605F0A7FDE5B1D3
:10A0140001233B7099F8003073B93046BDE8F883EA
:10A0240032464146002005F0FDFC0546EFE7204698
:10A03400651EFFF7C3FF2C46002005F07BFD0028BA
:10A04400EBD03B78002BF2D1E7E73B78002BE4D050
:10A05400013C2046FFF7B2FF3B78002BCAD1DCE776
:10A06400B8990020B7990020014B03600020704785
:10A07400C053010008B5044807F014FEBDE80840C9
:10A08400024807F00FBE00BFFA5A01002F5B01001F
:10A094002DE9F04F002703689DB002934368DFF871
:10A0A400BCA103938368DDE902460493C368059366
:10A0B4000369DDE904BE0693436907938369DDE917
:10A0C400062C0893C36998460993089B0093CD59BD
:10A0D4000CAB2DBA5AF8049BDD514FEAF223A94484
:10A0E40083EAB213009D83EA72634B4425EA0205B6
:10A0F40002EA0C0985EA09052B44434486EA0B0568
:10A104004FEA743888EAB408254006EA0B0985EA60
:10A11400090588EAB4580437A844402F03EB0E0518
:10A124004344DE46DDF8008040F088804FF0100A9A
:10A134004B490A9151460AF1010A0DF1700E0AF0D9
:10A144000F070EEB870757F8407C01F00F094FEA21
:10A15400B748019788EAF71801F10E0707F00F07CF
:10A164000EEB870757F8407C09314FEAF74E8EEA29
:10A17400774ECDF82CE001F00F010DF1700E0EEBCF
:10A1840081010EEB890959F840EC51F8401CBAF1F1
:10A19400400F7144DDF804E088EADE08DDF82CE0C5
:10A1A40041448EEA972E714405EA02084FEAF52EDF
:10A1B4002CEA050787EA08078EEAB51EDDF8288031
:10A1C4008EEA756E774458F804EF49F8401C7744DA
:10A1D4000F4400994FEA733E394484EA0607CDF8E8
:10A1E40028808EEAB30E07EA030704EA06088EEA1B
:10A1F400B35E87EA080777440F4401EB0B0ECDF8F2
:10A2040000C0B34622D1029939440160039919442C
:10A21400049B416023448360059B3344C360069BD5
:10A2240073440361079B2B444361089B134483617C
:10A23400099B6344C3611DB0BDE8F08FB346CDF8FC
:10A2440000C0264694461C462A4640E794462646C5
:10A254002A461C4675463B466CE700BFC0530100C6
:10A26400FC53010010B50446C8B17022002108F067
:10A27400C8FB0B4B0B4A0C49C4E900230B4B0C489D
:10A28400C4E902130B4BC4E9040301200A4BA36184
:10A2940003F17453A3F52303A3F69243E36110BDC2
:10A2A40085AE67BB67E6096A72F36E3C3AF54FA563
:10A2B4007F520E518C68059BABD9831F2DE9F04763
:10A2C40006460C4600AF002936D0D1E90012E94613
:10A2D4008AB06D46A3684FF0050AA8461F48C5E931
:10A2E4000723C5E9050148F810AF002342464FF49F
:10A2F40021511B48FFF778FBD4E90312CD4663696B
:10A30400AD461848C5E90723C5E90501C5F810A0FD
:10A31400002342464FF421511148FFF765FBCD4617
:10A32400E3690121104A0E4808F0D3FAA369012118
:10A334000E4A0B4808F0CDFA012E07D1EFF305833E
:10A344000B4A31460648103B08F0C3FA2146304612
:10A3540005F01AFCBD46BDE8F08700BF5D5B010057
:10A36400385201008C5B0100BB5B0100CA5B010039
:10A37400F85B010030BFFFF7FDBF00BF2DE9F041DE
:10A3840005460B4EDFF82C80324606EB0807CC1B43
:10A39400204609490AF0B9FCA01942460021083CAC
:10A3A4000AF0C0FC6C6707F10800BDE8F08100BF4B
:10A3B400000000000400000060520100074A936896
:10A3C40093F90E10002907DB526993421FBF044A18
:10A3D400536843F080535360704700BF7C9900205A
:10A3E40000ED00E070B52A4C06460D4629482A497E
:10A3F40008F03DFDA36ADB0647D52648274908F047
:10A4040036FD1120A36A1C0704D52248244908F00C
:10A414002EFD12201E4CA36A990712D521491D480E
:10A4240008F025FD636BA26A120609D501211E4AB4
:10A43400184808F04EFA1EB1A36A23F08003A36201
:10A444001320134CA36ADE0704D51248174908F0F9
:10A454000EFD1420A36A9C0604D50E48144908F086
:10A4640006FD15200A4B9A6AD10658BF9A6A9A6A61
:10A47400920642BF5A6A22F400525A629A6A42F021
:10A48400FF029A6200232B7070BD1020BAE700BF50
:10A4940000ED00E0385201000B5C0100215C01007A
:10A4A400545C0100675C01007F5C0100955C010065
:10A4B400B45C010010B5244C2449254808F0D7FCAD
:10A4C400A36A99013ED52248224908F0D0FC1E20F7
:10A4D400A36ADA0104D51E481F4908F0C8FC1F20EE
:10A4E400194CA36ADB0204D519481C4908F0BFFCC7
:10A4F4000220A36A1C0304D51548194908F0B7FCC7
:10A504002120114CA36A590304D51148154908F0B8
:10A51400AEFC2220A36A9A0304D50D48124908F020
:10A52400A6FC2320084CA36ADB0304D508480F4982
:10A5340008F09DFC2420A36A6FEA03436FEA1343E7
:10A54400A36210BD1D20C3E700ED00E0E35C010041
:10A5540038520100FB5C01000E5D0100285D010022
:10A56400525D0100705D0100955D0100AF5D010069
:10A5740070B5294C06460D462848294908F077FC51
:10A58400A36AD9043CD52548264908F070FC172055
:10A59400A36A1A0504D52148234908F068FC182049
:10A5A4001D4CA36A9B0512D51C48204908F05FFC8A
:10A5B400A36BA26A100409D501211D4A174808F0AB
:10A5C40088F91EB1A36A23F40043A3621920124C34
:10A5D400A36A590504D51148164908F048FC1A2005
:10A5E400A36ADA050ED50D48134908F040FC1B2078
:10A5F400094A936A43F47F43936200232B7070BD2E
:10A604001620C5E7A36A9B04F2D504480B4908F059
:10A614002EFC1C20ECE700BF00ED00E038520100E6
:10A62400DA5D0100F05D0100545C0100015E01008F
:10A634001A5E01002F5E01004A5E0100B45C010055
:10A644002DE9F0478AB0694B0446D3F804A0894643
:10A654001646002500AFCAF3080885F31188BFF336
:10A664006F8F02F07F43B3F17F4F1ED1D3071CD409
:10A67400500603D4110708D4012508E05C495D485D
:10A6840008F0F5FB16F0040600D04C460025002324
:10A69400FB71A8F10303092B00F28680DFE803F0C5
:10A6A400077C7F798484848484822C46EFE7524932
:10A6B400504808F0DCFB00234C4EFB71F36A9A0708
:10A6C40005D54E494B4808F0D2FB002329E0F36A34
:10A6D400002B01DA4A49F5E7F36A5B00F5D54949ED
:10A6E400444808F0C4FB7369A26943F4807373613E
:10A6F400BFF34F8FBFF36F8F736932F8022C23F4CB
:10A7040080737361BFF34F8FBFF36F8F4DF6027386
:10A714009A4228D1236801213B4A364808F0D9F8E7
:10A724002368FA79DAB907F1080604F1200C3246F5
:10A7340020686168083403C264451646F7D17A6A12
:10A74400002D4ED0C2F3080121B96FEA52226FEAFC
:10A7540042227A62184607F10801FFF7AFFD283755
:10A76400BD46BDE8F087B36ADBB22BB10120F91D09
:10A77400FFF738FE0346D4E7B36A13F47F4F04D0DF
:10A784000120F91DFFF7F4FEF4E7B36AB3F5803F47
:10A794009BD3FFF78FFEEDE70020F91DE8E70020CB
:10A7A400F91DEFE719498DE7194A6E461AF4F87F47
:10A7B4008AB0184B18BF13466A461749C2E90513F5
:10A7C400A8F11003D3614FF400731384134B42F8C0
:10A7D400103F00234FF411510648FFF705F9B54621
:10A7E40073E722F4FF7222F00102B2E700ED00E009
:10A7F400905E010038520100B35E0100CA5E0100A0
:10A80400EB5E0100F95E0100185F0100345F010096
:10A81400775E0100625E0100585F010004000001E0
:10A82400064B5A6942F010025A615A6942F4806236
:10A834005A615A6922F008025A61704700ED00E03B
:10A84400EFF30880EFF3098101B57246FFF7F8FED4
:10A8540001BD00BF002080F31488BFF36F8F002078
:10A8640080F30A8880F30B8808F0BBFE00200E49B1
:10A874000860BFF34F8F0D4880F3088800F02CF870
:10A88400202080F311880A484FF40061401880F3B7
:10A894000988EFF314800221084380F31488BFF37E
:10A8A4006F8F00F00FF9000094ED00E060B7002016
:10A8B40020A60020002318460649D1F89020C2F3B0
:10A8C4000722934200DB7047C1F89830C1F8A0001A
:10A8D4000133F6E700ED00E010B572B6002484F30E
:10A8E4001388FFF7E7FF23464FF0FF300C4A03F1CC
:10A8F40020010133102B42F82100F8D100234FF03E
:10A90400FF30074A03F160010133102B42F82100A4
:10A91400F8D162B6BFF34F8FBFF36F8F10BD00BF86
:10A9240000E100E0084B9B6883420BD1EFF3058301
:10A9340043B1064B5A6842F080525A605A6A22F474
:10A9440000425A620AF097B87C99002000ED00E0BA
:10A954006FF00A01084A9368D967084998674B68F9
:10A9640043F080534B60002383F31188BFF36F8F50
:10A974009368D86F704700BF7C99002000ED00E019
:10A98400104A936883F88100EFF31183202383F343
:10A994001288BFF36F8F4FF00061536920F0FF00FE
:10A9A4009360094A5160596F084A1160002193F875
:10A9B400812010439A6F996782F31188BFF36F8FD8
:10A9C400704700BF7C99002000ED00E09C960020B9
:10A9D40010498A6882F881E04FF030001044EFF3A8
:10A9E400098C80E8F01F74467046FFF7C9FFA6463D
:10A9F40008498A68864602F1300090E8F01F8CF31B
:10AA0400098802F1000004B508F03BFABDE80440EF
:10AA1400704700007C9900201EF0040F0CBFEFF378
:10AA24000880EFF30980816911F8021C0229FFD024
:10AA340001B508F011FA01BD40B2002807DB01237B
:10AA44004109034A00F01F00834042F82130704757
:10AA540000E100E040B200280CDB01220649430972
:10AA640000F01F008240203341F82320BFF34F8FB2
:10AA7400BFF36F8F704700BF00E100E0054B420950
:10AA840053F82220012300F01F0003FA00F01040C5
:10AA9400704700BF00E100E040B2002801F101016D
:10AAA400ACBF00F16040064B4FEA4111C9B2ABBFE5
:10AAB40000F5614000F00F0080F80013195470474E
:10AAC40014ED00E00B4A08B50B4B22F07F029A60AC
:10AAD400BFF34F8FBFF36F8FD3F8882022F4700237
:10AAE400C3F8882005F03CF906F0EAF800F050F8C5
:10AAF40005F076F90080000000ED00E042F8203C0B
:10AB0400009B0D4942F81C3C019B21F0010142F8D5
:10AB1400183C029B42F8081C42F8143C4FF0807326
:10AB240042F8043C002383674FF43C43203A026517
:10AB3400C0F88030704700BFFD8A000000B50D4B9F
:10AB440015469860426F0C4B0E461A60436E83F3B1
:10AB54000B882C4686F309884FF00000074B984772
:10AB640020464FF000014FF000024FF00003044C68
:10AB7400204700BF7C9900209C9600208F2E010066
:10AB8400FD8A00001022014B1A61704700ED00E0BD
:10AB9400002320210348C2180133452B82F80013F7
:10ABA400F9D1704700E100E008B5EFF30583064AE8
:10ABB400103B02EBC30152F8330049688847BDE8F3
:10ABC4000840FFF7FBBB00BF804F01001FB5094CD5
:10ABD400094A23460121094800F012F9002303938E
:10ABE400074B0121E41A01A80193029400F012F921
:10ABF40004B010BD0000072000800020C0540100F4
:10AC04006889002010B50C7A0B6804F01F0223F049
:10AC14001F031A43CB68640923F01F03054943EA61
:10AC2400440343F00103C1F89800C1F89C20C1F823
:10AC3400A03010BD00ED00E010B50A4BD3F8903001
:10AC4400C3F30723013B984208D901210346064A6E
:10AC5400064807F03EFE6FF0150010BDFFF7D2FF67
:10AC6400FBE700BF00ED00E06F5F01002052010030
:10AC74002DE9F04F8946144606464FF00008514D21
:10AC840085B0C84527DAD6F804A0BAF1000F44D03D
:10AC9400BAF11F0F17D91AF01F0F14D1D6F800B04C
:10ACA4001BF01F0F0FD1584608F02BF907460AEB8B
:10ACB4000B00013808F025F9874210D06FF0150712
:10ACC400414A3B4601E04346404A0121404807F0DF
:10ACD40000FE6FF01504204605B0BDE8F08F17F1B3
:10ACE400160FEDD0BC42EBDDC5F89870D5F89C107A
:10ACF400C5F89870D5F8A03021F01F0143F01F0B60
:10AD0400D6E900321A44994202F1FF3A1DD1D345E3
:10AD140007D13146F8B208F0FDF808F101080C3605
:10AD2400AFE73146C5F89870D5F89C3022F01F0281
:10AD340003F01F031343C5F89C30E0B208F0EAF8AF
:10AD440010F1160FC5D0441CE7E7C5F89870D5F884
:10AD5400A020013B23F01F0302F01F021343D3453D
:10AD64003146E0B2C5F8A030E8D008F0D3F810F1CD
:10AD7400160FAED0C5F89870D5F89C209DF8083011
:10AD84000BF1FF3B62F304038DF80830D5F8A030D3
:10AD94009DF808205B0863F347128DF80820D6E974
:10ADA40000321344009323F01F035B44A3EB0A0314
:10ADB400013023F01F036946C0B20393FFF73CFF41
:10ADC400BEE700BF00ED00E0B85F0100955F010041
:10ADD400205201000522044BC3F89420BFF34F8F87
:10ADE400BFF36F8F704700BF00ED00E0BFF35F8FCC
:10ADF4000022024BC3F89420704700BF00ED00E02E
:10AE040010B5034C2278FFF733FF207010BD00BF4C
:10AE1400C99900202DE9F74F294D8A4606464FF07F
:10AE24000008AB46274FD0451BDAD6F80490B9F199
:10AE3400000F3FD031680846019108F062F801998B
:10AE4400044609EB0100013808F05BF884424FF036
:10AE540014021D4B08D002FB08F36FF015024BF8E7
:10AE6400032003B0BDE8F08F14F1160F2C60F8D066
:10AE74001978A142F5DD02FB08B0C7F89840C7F87D
:10AE84009840D7F89C4000F10801007B64F304006B
:10AE94000871D7F8A0000C79400860F347140C71CE
:10AEA400D7F89C1021F01F016960D7F8A01021F099
:10AEB4001F01296108F1010814350C36B3E700BFFE
:10AEC400A096002000ED00E0C9990020F0B54149AA
:10AED400414CD1F890302568C3F307239D4287B0D5
:10AEE40075D80020FFF782FF3C4BC1F8C030854283
:10AEF40016D13B4C01A82570FFF7B6F8002506468D
:10AF0400384FAE4213D1002023783249D1F8902033
:10AF1400C2F30722934254DBFFF75CFF00202FE0CB
:10AF2400616801EB0011FFF76DFE0130DFE7019965
:10AF3400280101EB0513DA683A40B2F5001F21D06D
:10AF4400B2F5800F2BD0B2F5801F38D15A689B68B8
:10AF54000958013B22F01F0003440120844623F0DA
:10AF64001F0340EA4C10CDE902218DF8100002A91C
:10AF740020780593FFF760FE00281DDA6FF01500B6
:10AF840007B0F0BD5A689B680958013B22F01F00C6
:10AF940003444FF0020C012023F01F03E1E75A6839
:10AFA4009B680958013B22F01F0003444FF0000C3A
:10AFB400062023F01F03D4E72378013323700135DF
:10AFC4009FE7C1F89830C1F8A00001339EE74FF025
:10AFD400FF30D5E700ED00E0CC540100AAFF4400A7
:10AFE400C99900200000F0FF08B5024B1B68984780
:10AFF400002008BDB4960020034B044A18609378DF
:10B0040043F0020393707047B49600202C8600200E
:10B01400F0B587B007460E46144600211022684654
:10B024001D4609F07FFE02238DF80230054B2A46A7
:10B0340021466846CDE90476019306F0BFF807B0CF
:10B04400F0BD00BF4B2F010008B50649064821F0AA
:10B054000701C1F1005202F5E02206F071FD002063
:10B0640008BD00BF4FD90020B896002070B54169D3
:10B074000446867A0A4D59B1437ADB0706D42C2359
:10B0840003FB06535B6A1B689B6898470023636154
:10B094002C20214606FB0050BDE8704009F0FCBAA4
:10B0A400B88800202C22024B02FB0030704700BFFE
:10B0B400B88800202C21827A054B01FB02339A6A5E
:10B0C4001B7F801A1B3323F00303B0FBF3F070479C
:10B0D400B888002038B52C24827A064B04FB02334E
:10B0E4005B6AD3E901240C601568FFF7E3FF04FBF6
:10B0F400005038BDB88800202DE9F04F85B00546D2
:10B10400684691461C4690469A46039109F012FD02
:10B11400DDE90067EFF3118B202383F31288BFF37B
:10B124006F8F698B002942D02B8B8B4226D900224A
:10B134000023284604F08CFF0446F8B18BF31188F1
:10B14400BFF36F8F039B002B4FD032463B466846BC
:10B1540009F014FD2C21A27A2C4B204601FB02336A
:10B164005B6A03A91B681D68DDE90023A8476061C9
:10B1740000283BD12046FFF779FF31E0698B4B1E55
:10B184006B838BF31188BFF36F8F2B7F2A8BAC6A91
:10B194001B3323F00303521A02FB03441B4B1C4AC8
:10B1A400EB1A9B105343A3722B7FE372CAE78BF312
:10B1B4001188BFF36F8F54EA090409D009F056FED1
:10B1C400144A154B12589A420ABF8846C846C246CA
:10B1D40042465346284604F03BFF04460028B1D1BA
:10B1E4000024204605B0BDE8F08F636101230025EB
:10B1F4002381039B29466382E27A656004F1180087
:10B2040009F090FD63692582E360EAE7B8880020CD
:10B21400A38B2EBA08000000F094002070B52C25F2
:10B224000B4C00B970BD037A4668013BDBB2037274
:10B23400002BF7D1C3604360837A05FB03431B6A89
:10B2440013B198473046ECE7FFF710FFFAE700BF69
:10B25400B888002007B50DF1070003F09FF8114BE3
:10B2640098421CD14FF480620F4B1049C3F8B825A3
:10B274004FF40062C3F83C259DF8070008F0BAF9C2
:10B284000B499DF8070008F0B0F901209DF807303C
:10B29400984003F077F8002003B05DF804FB6FF0EA
:10B2A4000B00F9E70000AD0B00A002402CA0024007
:10B2B40028A10240052370B5144D154E2C78013495
:10B2C400B4FBF3F303EB8303E41A08F040F9114AE7
:10B2D400137823B156F82430C01A072813D90E4B1B
:10B2E400D3F8141141B10021C3F81411D3F8143167
:10B2F4002C700CB9012313702C7808F028F946F847
:10B304002400012070BD0020FCE700BFCB99002081
:10B31400C4960020CA9900200050004048B1054B53
:10B32400054A1B68B3FBF2F35843044B43F0010393
:10B3340018477047A486002040420F00D0520100F5
:10B344000B460121024AC2F814160021184700BF17
:10B35400005000400149024806F06DBF005501004D
:10B36400D89600202DE9F047174B0546D3F8302135
:10B374000C46072AD3F8343121D1023B032B02D8DF
:10B38400124AD35CDBB14FF0010800264FF050297C
:10B394000F4F0520C9F81886C7F8146608F023F97A
:10B3A4004046C7F8148608F01EF9C7F81466C9F8B1
:10B3B400186628462346BDE8F047002118470022B6
:10B3C400034BC3F81426F4E700F0072005600100DE
:10B3D400005000401FB578B100230193039301236B
:10B3E40069460848029306F039FF029B9B0700D187
:10B3F400039B05B05DF804FB024805B05DF804EB5F
:10B4040006F083BFD896002073B5069CC4F30726C4
:10B41400304602F0ABFBE5B20146284608F0EFF8EF
:10B42400002201200A4BA40B04F0FC041A51094B1E
:10B43400A84000938DF8042002F0AAFF304602F0E1
:10B4440049FD2946684603F04DF902B070BD00BFBE
:10B4540080A00240007001407FB52C4B01A90293EB
:10B46400002302A88DF80C3003F034F9284B9842DD
:10B4740048D102F011FD041E0BDA9DF8041002A855
:10B4840003F030F901212346224A234807F021FA28
:10B4940035E040F60703214D8DF80540AE68ADF860
:10B4A40006307468019B14B96FF05704EAE7082169
:10B4B40028461B4AA047041EE4DB3369002BF3D063
:10B4C4000122082128469847041EDBDB01209DF851
:10B4D4000430984002F056FF9DF805009DF8045092
:10B4E4009DF8076008F01DF80146284608F082F828
:10B4F4000C4BB60045F000459D51002CC2D12046AE
:10B5040004B070BD6FF01204BCE700BF00700140CE
:10B514000000AD0B0960010048520100444F0100D6
:10B524002DB5000080A102402DE9F3411446836843
:10B534001B690BB100229847C4F30726304602F07A
:10B544001DFB0546304607F0ECFF4FF00008E7B25C
:10B554000146384608F057F8104B220E920043F883
:10B564000280304602F002FB0D4A4FEA943C0CF094
:10B57400FC0C47F0004342F80C300146384608F012
:10B5840034F8084B05F132020093304643460194E7
:10B59400520007F0D0FF02B0BDE8F08180A1024064
:10B5A40080A002400DB400000E4B402928BF40216A
:10B5B40070B51D460C4C4618B04203F1020304D189
:10B5C400002305F81130074870BD02781209A25C07
:10B5D40003F8022C10F8012B02F00F02A25C03F80E
:10B5E400012CE9E7EA9900209260010030B5037864
:10B5F4008BB0044607AD032B21D8DFE803F0021A11
:10B604001C1E12492846FCF7ADFD059563781E21E2
:10B614000493A3780E4A0393E3780E4802932379A4
:10B62400019363790093A37905F09CFD09480BB05D
:10B6340030BD0949E6E70949E4E70949E2E70A2197
:10B644002846084A05F08EFDDFE700BF4D60010083
:10B654006F600100CC990020546001005B60010020
:10B66400656001002E61010038B50546054807F004
:10B674007BFC044620B101210C3007F0A8FC2576A0
:10B68400204638BD108900200E38012810B50CD88A
:10B694000A4807F069FC044628B101210C3007F080
:10B6A40096FC01232376204610BD09B10448F0E737
:10B6B4000120BDE81040FFF7D7BF00BF3C89002040
:10B6C400B8880020012110B50C3007F0A4FCBDE8B7
:10B6D400104003780121024A024807F0E4BC00BF8D
:10B6E400B2600100C851010010B50749074809F0CC
:10B6F40080F8031E06DABDE810400121044A05481B
:10B7040007F0D1BC10BD00BF4C860020D0910020B2
:10B71400D4600100C85101000B46B0B50D8A00AFDA
:10B7240004462946D868FFF73FFF8AB06A46094BAA
:10B73400C2E90750C2E9053440F202439384064B40
:10B744004FF43251054842F8103F07F0B9FCBD46AA
:10B75400B0BD00BFF160010005000001C851010047
:10B7640037B50446084602EBC3039A4202D16FF090
:10B774005E0010E0114611F8085BA54211D1038A5E
:10B784005178994209D908480121084A009407F0E0
:10B79400AAF86FF0150003B030BD53689847002035
:10B7A400F9E70A46E1E700BFC8510100136101004F
:10B7B40038B51F4807F0F1FB0446002837D0017E56
:10B7C400012930D1038A012B04D81A4A1A4807F0F8
:10B7D4006AFC1DE002210C3007F01DFC03780546CD
:10B7E4000E3B012B0ED840F6A833144A14491548D1
:10B7F40006F065FA002383F31188BFF36F8F0323E8
:10B80400184602DF032321460F4A287807F05BFC21
:10B814002046FFF703FD0D4BD3F814313BB1BDE8CF
:10B824003840FFF761BF0B46094A0121CEE738BD16
:10B83400D485002035610100C85101005161010027
:10B8440085610100B361010084550100C0840020BA
:10B85400D061010010B5012104460C3007F0DBFB78
:10B864002146BDE810400023014A007807F02BBCB4
:10B874009C550100F8B50121044600AF0C3007F0D7
:10B88400CAFB0678002321463046104AFFF768FFBA
:10B894005F3018D1258AE0682946FFF785FE6C469B
:10B8A4008AB06A460A4BC2E90750C2E9053640F23B
:10B8B40002439384074B4FF43251074842F8103F38
:10B8C40007F0FEFBA546BD46F8BD00BF9C55010030
:10B8D400E461010005000001C85101002DE9F74FA2
:10B8E4000023804689461746DFF810A1DAE8EF4FB7
:10B8F400CAE8E23F002AF9D1264644B94346012169
:10B904003F4A404803B0BDE8F04F07F0CCBB2046A7
:10B91400FFF7D0FB4FF00C0B3B4D0BFB0050438863
:10B9240043451BD02046FFF7C5FB0BFB0050438863
:10B9340001210093354A4346324806F0D4FFDAE841
:10B94400EF3FCAE8E26F002AF9D1002B53D01E461C
:10B95400304603B0BDE8F04FFFF760BCA7420ED0FD
:10B96400204607F0FCFA012104F10C084046217638
:10B9740007F02DFB40463A8AF96807F032FB20466F
:10B98400FFF798FB0C2707FB00504368ABB1B9F1F4
:10B99400000F12D12046FFF78DFB012107FB005059
:10B9A4004268D2E90003127A03F01F07B9405B0929
:10B9B400DAB100EB830007F078FB2046FFF77AFB4F
:10B9C4000C2707FB00508368002BC1D02046FFF7EB
:10B9D40071FB784305F800902046FFF76BFB07FBEB
:10B9E4000055A86804F066FBB2E7C94300EB830086
:10B9F40007F077FBE1E703B0BDE8F08FD0850020C6
:10BA040016620100C8510100F49600203E62010054
:10BA140010B5C1E900239DF808300C460B72FFF7FE
:10BA240049FB0C22024B02FB00335C6010BD00BFDB
:10BA3400F49600202DE9F0474FF0FF3206464FF010
:10BA4400FF331848884607F08FFA044638B34FF09E
:10BA5400000900F10C070121384607F0B8FA204626
:10BA640084F81890FFF726FB4FF00C0A0E4D0AFBE2
:10BA7400005046802046FFF71DFB0AFB0050C0F82B
:10BA840008902046FFF716FB0AFB005503213846B1
:10BA9400C5F8049007F09FFA068080F802802046DB
:10BAA400BDE8F087E4880020F496002070B50646CF
:10BAB40090B00B4D01AC0FCD0FC40FCD0FC40FCD03
:10BAC4000FC495E8070084E807000E2E9DBF10AB55
:10BAD40003EB860656F83C0C024810B070BD00BF5C
:10BAE4007C52010071620100034B0146D3F834011A
:10BAF40082689268104700BFC08400202DE9F0419D
:10BB0400044600F10C06304607F08DFA278A0546F4
:10BB1400012F0AD83B4601211D4A1E4807F0C3FAEB
:10BB24002046BDE8F041FFF779BB3046022107F01B
:10BB340072FA03780646052B23D00E3B012B23D93A
:10BB440040F6E473144A1549154806F0B8F8002382
:10BB540083F31188BFF36F8F0323184602DF4FF07E
:10BB64000208022321460F4A307807F0ACFA18F095
:10BB7400020FD5D06369278213FA85F5E560BDE825
:10BB8400F0814FF00308ECE74FF00108E9E700BF4C
:10BB940035610100C8510100516101007962010061
:10BBA400B36101007455010010B50C4604F00EFF9A
:10BBB400237E012B21D1E3681B78052B0AD00E3B91
:10BBC400012B0AD82046FFF799FF002404F012FF46
:10BBD400204610BD2046FFF791FF21460C4807F090
:10BBE400C7F90C490C4808F004FE031EEDDA0121E4
:10BBF4000A4A0B4807F057FAE7E70121094A0848BF
:10BC040007F051FA2046FFF709FB6FF01504DDE752
:10BC1400D48500204C860020D0910020D4600100FF
:10BC2400C8510100926201002DE9F84F3D4C00AF6C
:10BC340004213D4807F039FA3C4DE2793C4B20465B
:10BC4400012A88BF1D466E46FFF7D0FC8AB06A46BB
:10BC5400384BA346C2E905350125374BD061136241
:10BC6400364B4FF42351364842F8103F07F028FA78
:10BC7400DFF8D080B546DFF8C890334EE3790BF196
:10BC8400070B9D4238DB94F870506E462846FFF748
:10BC94000DFF8CB06A46B4F87210B4F87630C2E97D
:10BCA40007514FF400755362DFF8A0C0284BC2E976
:10BCB40005C015854FF4535142F8103F204807F052
:10BCC400FFF9B54694F871603046FFF7EFFE8AB08D
:10BCD4006A46B4F874301F49C2E907631E4BC2E9CF
:10BCE400051095844FF43351154842F8103F07F07E
:10BCF400E7F9BD46BDE8F88F5846FFF777FCEA46FA
:10BD04008AB06A4640F20133C2E90565D061138402
:10BD14004FF41351484642F8108F07F0D1F901351A
:10BD2400D546ABE7C084002094850020356F010020
:10BD3400A6620100AA6201000002010304000002DD
:10BD4400C851010004000001B9620100CA62010087
:10BD54000600000108630100050000010048704767
:10BD640067580100014804F04BBB00BF3C8600202B
:10BD740038B502460B462B4DD5F81C1109B90020E5
:10BD840038BD05F1F80004F0B9F90028F7D1002214
:10BD9400002305F58E7004F05BF9044668B940F69B
:10BDA400B733214A2149224805F089FF84F31188D9
:10BDB400BFF36F8F0323184602DFD5F810315BB150
:10BDC40001211C4A1C4806F07BFDD5F81001FFF741
:10BDD40025FA0023C5F81031204607F0F4F8C5F819
:10BDE40010012046FFF780FE0346C8B10121134A23
:10BDF400114807F058F9124804F05CF92046FFF79F
:10BE040059F90C220F4B02FB0033588818B1224613
:10BE14001F21FFF763FD2046FFF700FAFFF7A2FF9B
:10BE24000120ADE7C084002051610100A66001003B
:10BE3400B361010051630100C85101002F63010087
:10BE4400B8850020F49600202DE9F04F87B0054610
:10BE540016460C4600AF31B9FFF7ECFD044648B96D
:10BE64006FF0680092E0887AFFF71CF9534B834225
:10BE740040F09E8001220021384608F01BFC204639
:10BE8400FFF718F90C23DFF838A103FB00A0876043
:10BE9400204607F098F801464A4808F0F2FBFFF7FD
:10BEA40061FF08F0E3FF484B1A58484B9A4220D1EF
:10BEB400DFF81CB1434808F0F9FB002181464FF438
:10BEC400A020FFF755FF804688B94FF4D473594634
:10BED400404A414805F0F3FE2946404805F0EFFE8C
:10BEE40088F31188BFF36F8F0323184602DF4C4594
:10BEF400E0D14FF4A0220023384604F0FFF8804636
:10BF040098B14FF4D773334A3549334805F0D7FE17
:10BF140042462946334805F0D2FE002383F31188B4
:10BF2400BFF36F8F0323184602DF2046FFF7C2F8E2
:10BF34000C2358431AF80080B8F1000F30D06E4635
:10BF44008AB06A46284BC2F81C80C2E90535274BE3
:10BF54004FF43251136240F202439384244B254838
:10BF640042F8103F07F0ACF82046B546A8F109089E
:10BF7400FFF754F9B8F1090F0FD8DFE808F01C0EE9
:10BF84000E0B050E0E0E0E196FF00B001C37BD467E
:10BF9400BDE8F08F6FF00C00F8E76FF00400F5E7F0
:10BFA40016B134600020F1E72046FFF737F9F9E7CE
:10BFB4006FF01500EAE76FF06E00E7E7E488002011
:10BFC400F4960020DC85002008000000F094002096
:10BFD4006C63010051610100B361010074630100ED
:10BFE400946301009D630100E2630100356F010069
:10BFF40005000001C85101002DE9F04182B000AFF5
:10C00400002140F603403A1DFFF71EFF04460028B6
:10C014006ED17868C3681B7853B9BC4BD3E8AF2F93
:10C0240002F00902D3E8EF1FC3E8E42F002CF9D192
:10C03400FFF7F4F8002141F203003A1DFFF704FF73
:10C044000446002854D17A68B14DD16805F17803CB
:10C05400D1F80100D1F8051003C31046FFF7DEF84C
:10C06400214641F201003A1DFFF7EEFE0446002886
:10C074003ED17868C3685A7885F870205A88A5F844
:10C0840072201A7985F87120B3F80720A5F8742076
:10C09400B3F80530A5F87630FFF7C0F8214641F231
:10C0A40002003A1DFFF7D0FE044608BBD7F804C0CF
:10C0B40005F18006DCF80C20531C41323446186824
:10C0C4005968083303C493422646F7D16046FFF704
:10C0D400A5F800F0D5FE044650B995F87C30580612
:10C0E4000BD401218B4A8C4806F0EAFB6FF0120452
:10C0F40020460837BD46BDE8F081214642F20300E0
:10C104003A1DFFF7A1FE04460028F1D17A68834B5B
:10C11400D168D1F80100D1F8051003C31046FFF728
:10C124007DF81F23A5F8E83095F87C30990617D4DC
:10C13400022140F66D40FFF77DFC064600284AD0F8
:10C1440002210C3006F047FF01234470224603709D
:10C15400314640F66D40FFF777FE04460028C7D10C
:10C1640095F89C301A0712D5002142F21C003A1DA2
:10C17400FFF76AFE04460028BAD17868C368D3F88A
:10C184000120D3F80530C5E93823FFF747F8082123
:10C1940042F20100FFF74EFC0446E0B108210C30E6
:10C1A40006F019FF022600222146067042708270B2
:10C1B400C270027142718271C27142F20100FFF7D2
:10C1C40043FE0446002893D1082140F60140FFF7BE
:10C1D40031FC804610B96FF0680489E708210C30FF
:10C1E40006F0F9FE802343702023047084700471E8
:10C1F400447184712246C670C371414640F60140C1
:10C20400FFF722FE044600287FF472AF01463A1D70
:10C214004FF60140FFF718FE40B1414A02213E4863
:10C2240006F04EFB00F0B4FB044661E77B686E4603
:10C23400DC688AB0B4F80130032B96BF394A3A4916
:10C2440052F823106A46D3614FF4007337481384BD
:10C25400374BC2E9050142F8103F4FF413512E4801
:10C2640006F02EFFB4F80120B546022AB4F80330D4
:10C2740049D1052B47D82F4A52F823106E468AB06D
:10C284006A46D3614FF400732B481384284BC2E9E8
:10C29400050142F8103F4FF413511F4806F010FFF8
:10C2A400B546637994F806C0032B98BF234AB4F8C3
:10C2B4000760D4F809006C468CB094BF52F8231080
:10C2C40019496A46C2E9073C4FF40073DFF870E08D
:10C2D40093851C4BC2E905E1C2E909604FF473512F
:10C2E40042F8103F0C4806F0EBFEA5467868FEF7CE
:10C2F40095FF00214FF602403A1DFFF7A5FD0446C5
:10C3040020B3114A8AE70849B8E700BF94850020A2
:10C31400C084002001640100C851010098850020F8
:10C324002564010064550100716201004964010043
:10C33400040000014C550100626401003C550100F9
:10C344007A64010007000001A76401007868C368EB
:10C35400B3F80130A5F8C130FEF760FF95F8C1309D
:10C364005B077FF55FAF21464FF603403A1DFFF7A9
:10C374006BFD08B1044A51E77868C3685B7885F8B7
:10C38400C030FEF74BFF4DE7D064010073B52C4D70
:10C394000646D5F8340108F048F848B90121294A7D
:10C3A400294806F08DFA6FF01204204602B070BDE1
:10C3B4006FF0020105F1D40006F093FE012106F0AE
:10C3C40074FE10EA010437D1204B1E600A4605F1C1
:10C3D400F80008F06FF905F58E7008F046F91C486E
:10C3E40008F032FA6FF007034FF4966219491848BF
:10C3F400009404F00BF81849154808F050FAD5F8E1
:10C404003401164983681B689847044630B10346D3
:10C414000121134A0C4806F046FEC6E73EB9FFF771
:10C42400EBFD04460028C0D1FFF7FEFBBDE705F194
:10C43400C40003F0E5FFB8E76FF07704B5E700BF89
:10C44400C0840020F9640100C85101006C970020E9
:10C45400D091002070A1002011650100ADBB000047
:10C464001A65010010B5FFF7C7FD044608B9FFF7C8
:10C47400DBFB044B1B681BB12046BDE8104018478A
:10C4840010BD00BF6C970020F7B5144B054693F917
:10C494009B300C46002B1DDA14B9204603B0F0BDC6
:10C4A400082C4FF0000142F2180001AA264628BFCA
:10C4B4000826FFF7C9FC0028F0D1019F3246F9682D
:10C4C4002846013108F021FC3846FEF7A7FE354422
:10C4D400A41BE1E76FF08500E0E700BFC084002003
:10C4E40038B5042104460C3006F095FD0346408817
:10C4F4005D7818B122461978FFF7F0F935B1044890
:10C5040003F0D8FDBDE83840FFF72CBC38BD00BFB0
:10C51400B8850020B0B50446032100AF0C3006F006
:10C524007AFDE3680578197840F63543B0F80100E0
:10C53400984215D16C468AB06A460F4B0F48C2E93F
:10C5440005310F4B4FF41251D36140F20133138480
:10C554000C4B42F8103F06F0B3FDA546BD46B0BDF6
:10C5640010B12246FFF7BAF9002DF7D0064803F0C0
:10C57400A1FDFFF7F7FBF1E736650100C8510100A3
:10C58400356F010004000001B8850020F8B50646A7
:10C594000024094DEF79E3B29F4202D86FF0010005
:10C5A40007E02946304606F0AFFD0735631C08B1A5
:10C5B4002046F8BD1C46EEE7C084002070B5194E35
:10C5C40006223146054608F0B5FB30B3062142F297
:10C5D4000500FFF72FFA044608B3062229460C305B
:10C5E40006F0FFFC2146002242F20500FFF72CFC76
:10C5F400044648B110F10D0F04D102210A4A0B4838
:10C6040006F08AFD204670BD33462A6843F869293E
:10C61400AA88B280012283F868200024F2E76FF030
:10C624006804EFE72985002075660100E8510100E0
:10C6340037B504460D4689B12846184906F064FD0D
:10C6440060B9174A2968C4EBC4041151A318AA8815
:10C654009A80AA799A71002003B030BD684606F02A
:10C6640014FD0028F8D16846FFF790FF0028F5DA9A
:10C674000B4A0098C4EBC40410519DF80610BDF891
:10C684000400A31898809971002DE4D012592A60EF
:10C694009A88AA809B79AB71DDE700BF3A600100FC
:10C6A400C084002070B50446B1B9C0B11F4906F07A
:10C6B4002BFDA0B92046FFF769FF00282FDA237865
:10C6C400012B04D1A37903F0C003C02B07D00121AF
:10C6D400174A184806F020FD6FF0150070BD164D7E
:10C6E400EB79012B1ED005F1D403D3E8AF3FDB0770
:10C6F40007D4002CF0D020460C4906F005FD002894
:10C70400EAD1EE792146731C3046EB71FFF790FFB6
:10C7140008B93046E2E7EB79013BEB71DEE76FF0F5
:10C724007700DBE76FF00B00D8E700BF3A60010049
:10C7340084660100E8510100C08400202DE9F34122
:10C74400044640B91A4A02211A4806F0E5FC0020C2
:10C7540002B0BDE8F081002141F2090001AAFFF70F
:10C7640073FB054608B1144AEDE7019E0622D6F88C
:10C774000C80124908F10107384608F0DBFA28B1A9
:10C78400062238460E4908F0D5FA18B93046FEF7A5
:10C7940045FDDCE7D8F801303046C4F80130BB88E9
:10C7A4002570A4F80530FEF739FD0120D0E700BF5D
:10C7B400B2660100E8510100CB6601004760010048
:10C7C4004160010007B56846FFF7B8FF044BD87114
:10C7D40018B169460020FFF72BFF03B05DF804FB96
:10C7E400C0840020F0B5304D89B0EC79002C53D1D1
:10C7F40095F8C26016F0010610D12C4A02212C488B
:10C8040006F08AFCEC71162600240127EB79E0B2CD
:10C8140098422CD3002B3FD000203BE06A462146AF
:10C824004FF60940FFF710FB08B1224AE6E7DDF8AE
:10C8340000C0DCF80C104B7823B96046FEF7EEFC20
:10C844001D4ADBE78B1C02AA01F112041746186883
:10C854005968083303C7A3423A46F7D118683446E7
:10C8640038609B886046BB80FEF7D8FCCAE708ABFB
:10C8740006FB003353F8182C33F8143C6946CDF802
:10C884000120ADF805308DF80070FFF7D1FE0134BA
:10C894000028BBD009B0F0BD0021084609B0BDE8AE
:10C8A400F040FFF7FFBE00BFC0840020E96601002E
:10C8B400E851010015670100356701002DE9F041D9
:10C8C40090460E461D46024650B14BB131030478E2
:10C8D40010D5730708D501212A4A2B4806F01CFC01
:10C8E4006FF01500BDE8F08106F020FC0028F9D1B6
:10C8F400012341E0F70730D5244FB8F1000F13D0DE
:10C90400B0060AD4C4EBC403FB5C012B13D02B7018
:10C91400B20620D543F002030BE097F8D83059064D
:10C92400F0D46FF08500DDE7C4EBC403FB5C012B9E
:10C9340001D02B700FE0072101FB04711046013177
:10C9440006F0ECFB0028CDD1C4EBC4043B5D2B7096
:10C95400B8F1000FDCD10020C4E773070ED50B4EED
:10C96400C4EBC407F35D012BE3D1072111FB0431B0
:10C97400314406F0D3FBF35D2B70B3E706F0D6FB2E
:10C98400B6E700BF5E670100E8510100C0840020E3
:10C9940038B5104DEB7913B10024204638BDFFF7AC
:10C9A40011FF044628B10C4A01210C4806F0B4FBDF
:10C9B400F3E7EB79002BEFD1FFF714FF04460028CF
:10C9C400F1D1681CFFF7FAFD04460028E5D0044ABB
:10C9D400EAE700BFC08400207D670100E851010040
:10C9E4009C6701002DE9F74F0C46202192460090E8
:10C9F400FFF720F80546002855D020210C3006F01A
:10CA0400EAFA20228146002108F08CF9002609F177
:10CA1400010B04EBCA0A0023D4F800806268934235
:10CA24000CD30834A245F6D100222946009889F88F
:10CA3400006003B0BDE8F04FFFF706BA98F8012094
:10CA4400B01C81181F2998F800C015D9BCF1090F32
:10CA5400C0F11F0201D1002A0CDC0121134A144841
:10CA640005F02EFF2846FEF7D9FB6FF0150003B042
:10CA7400BDE8F08F4FF0080CD7B2791C0BF8061004
:10CA8400711CC9B20BF801C0D8F804105BFA80F02D
:10CA94000193023708F039F9019B3744FEB20133A0
:10CAA40008F10808BAE76FF06800E0E7BF67010023
:10CAB400B0510100F8B545680646690535D40469E6
:10CAC40014B115F0010330D0194F3078FB7983424B
:10CAD4002BD9C0EBC00007221649384408F02AF9C4
:10CAE400A8B115F0010306D197F87020082A02D8DE
:10CAF400B2689F2A19D915F0300F09D0ACB1EA06F3
:10CB04000AD405F46035B5F5603018BF0120F8BDCE
:10CB1400EB0601D4002CF4D1D6E902239A4204D8BE
:10CB24001F2A02D9B3F5804FEBD90020EFE700BFED
:10CB3400C08400203A6001002DE9F04FD1F810A024
:10CB44008BB0BAF100050646804818BF012505934D
:10CB540006F016FB40070C46934640F1EC8008466D
:10CB6400FFF7A8FF28B96FF0150528460BB0BDE8FC
:10CB7400F08F204606F0F1FA81460028F3D006F142
:10CB84001008404606F0FCFA0106C0F3C01300F199
:10CB9400D580CDE90733CDF82330A3686068ADF8BC
:10CBA4001830E3686FF40071ADF81A3006F0D9FA62
:10CBB4008DF82500654806F0E6FA2378644A337058
:10CBC40082F86F3030462A4661680DF11D03FFF785
:10CBD40075FE05460028C8D106F10903BAF1000F15
:10CBE40018D0226920461168C6F8091091889980E6
:10CBF40092799A7106F057FB63680746DA071BD4EB
:10CC0400980503D4149B0BB9022F4ED102238DF83F
:10CC14001C3023E04F4A20461168C6F80910918859
:10CC2400927999809A7106F03EFB63680746DD07A6
:10CC3400E6D58DF81CA011E013F0100F0CBF0123F2
:10CC44000423A9468DF81C3023691A68CDF81E20E8
:10CC54009A88ADF822209B798DF824300F2142F276
:10CC64000600FEF7E7FE054600286AD00F2206A953
:10CC74000C3006F0B6F92946002242F20600FFF70E
:10CC8400E3F8054600287FF470AFBAF1000F12D024
:10CC94003046012106F017FB064620B301212E4A37
:10CCA4002E4805F00DFE35465FE70323DDF850906E
:10CCB4008DF81C30D2E7159B594600933046CDE9D8
:10CCC4000197149B059A06F07CFA00283CD1304663
:10CCD400012106F0F8FA06460028DFD1666886F0DE
:10CCE4000206C6F34006404606F001020E2106F095
:10CCF40055FA7B1E5A425A414046082106F04EFA24
:10CD0400B91E4A424A414046092106F047FA626880
:10CD140040460A2102F0010206F040FA4A46404623
:10CD24000B2106F03BFA62680D214046C2F38002F3
:10CD340006F034FA19E76FF00A0516E76FF0770585
:10CD440013E76FF0680510E705460EE794850020A9
:10CD5400C08400203A600100D8670100B05101008E
:10CD640073B51546069A0C46CDE900322B460A46A1
:10CD740001461148FFF7E0FE21460646002340F233
:10CD840001109D4202D1304602B070BD0A88824231
:10CD940004D14A6812B11278D20702D4013308319F
:10CDA400EFE70649064807F055FD4FF470220023CB
:10CDB400034803F0D3FBE6E7D884002001CE00004B
:10CDC400F084002008B50B4806F0A2FA6FF4804105
:10CDD400094806F0D8F9084806F0D2F903461B06BC
:10CDE400C0F3C01005D5BDE808400021014806F095
:10CDF4006ABA08BDD8840020E884002010B5FFF783
:10CE0400E1FF034630B1BDE810400221024A034865
:10CE140005F05FBD10BD00BFF3670100B051010014
:10CE240030B58DB0202104A8FFF72EFB0446E8B9E5
:10CE340007F07EFE4FF47A75A0FB053205FB012155
:10CE4400DB0B43EA4143C90BCDE90231082320221D
:10CE5400009308486B4404A905F09EFF30B90121F2
:10CE6400054A064805F02CFD6FF0040420460DB079
:10CE740030BD00BF7892002019680100E051010024
:10CE840007B508216846FFF7FFFA60B9082269462A
:10CE9400084805F061FF48B907480121074A05F031
:10CEA4000FFD6FF0040003B05DF804FBFFF7B8FF5B
:10CEB400F9E700BF78920020E051010030680100DA
:10CEC40038B50D46044698B191B10B4A05F07DFF83
:10CED400431C07D1FFF7A4FF48B929462046064A58
:10CEE40005F073FF01280CBF00206FF0040038BD6B
:10CEF4006FF01500FBE700BF7892002038B50A7E7A
:10CF04000C46022A05690CD0042A09D0BAB10D498D
:10CF14000D4806F004FA2046FEF780F9002038BDDB
:10CF24000522114604F10C0006F06CF8228AE1682F
:10CF3400281DFBF797FF021EEDDA0449E8E70122FA
:10CF4400EFE700BF59680100D05101006968010092
:10CF54002DE9F04F064600780C4604289046D2F896
:10CF6400109087B001F1FF3309D0052800F08980C3
:10CF7400022840F0C380032B62D8644A02E0012BEC
:10CF840007D8634A0121634807B0BDE8F04F05F0B4
:10CF940097BC73783E2B31D1F778BB1E5F425F415B
:10CFA400B6F80130033CB4EB132FADF814302AD19A
:10CFB40037B300220023CDE90223DFF85CB1DFF8A8
:10CFC40054A13946DDE902239DF81400FEF75CFB09
:10CFD400054600B300F10C07022205A9384606F005
:10CFE40000F8384606F023F884421CD90121009049
:10CFF40023464A4A474805F076FC3CE00027CFE741
:10D004004FF4A022D6E70121454A424805F058FCD6
:10D0140007B0BDE8F08F002FFAD102215A465046DE
:10D0240005F04EFCCDE72246F11C384605F0D9FF49
:10D0340029464046D9F8003007B0BDE8F04F1847FC
:10D04400002200230320FEF70FFB0546B8B1D6F8F3
:10D05400013000F10C070422384605A9059305F0B8
:10D06400C0FFBDF81630053C9C423ED02D4A01213C
:10D07400284805F025FC2846FEF7D0F8C8E72A4AD8
:10D0840080E7032B01D8294A7CE700220023FEF71E
:10D09400EBFADFF89CA00546A8B1D6F8013000F100
:10D0A4000C070422384605A9059305F09AFF0023CE
:10D0B400CAF80030BDF81630053CC3F30D039C429A
:10D0C40013D01C4AD3E76421DAF80020B2FBF1F351
:10D0D40001FB13231BB918490E4806F020F9DAF8AE
:10D0E40000300133CAF8003092E7384605F09FFF5C
:10D0F40084423FF67BAF2246711D96E702460F49F4
:10D10400044807B0BDE8F04F06F009B91E690100F4
:10D1140081680100D0510100C6680100FB6801006C
:10D12400A2680100576901003D69010079690100A5
:10D1340070970020B869010098690100DA6901005C
:10D1440070B5056900200E4606F0F4F8044630B1C7
:10D1540002461549154806F0E2F8204670BDE86B12
:10D16400FBF7F2FD044628B110F1780F02D0024615
:10D174000F49EFE7E86B05F10C02291DFBF724FECC
:10D18400044610B102460B49E4E74FF40042002381
:10D1940005F1240002F0B2FF044610B1024606492C
:10D1A400D8E72E60D9E700BFEE690100D051010035
:10D1B400136A0100436A0100676A0100002238B55E
:10D1C4001146056940F60340FEF73EFE044630B1C1
:10D1D40002460F490F4806F0A2F8204638BD281D24
:10D1E400FBF714FE044610B102460B49F2E7E86B64
:10D1F400FBF7CAFD044610B102460849EAE706F007
:10D2040093F8044610B102460549E3E72860E4E7D1
:10D21400876A0100D0510100AD6A0100D86A01009B
:10D22400FC6A0100084B70B5C31A0D4607499B10F0
:10D23400044659434022064806F08BF82B46014623
:10D244002046BDE87040184788970020B76DDBB6CC
:10D254001C4F0100402373B50B4C0093041B0B4679
:10D264000D460A49A41061430646094A094806F0D6
:10D274009BF8011E05DA30462B4602B0BDE870402B
:10D28400184702B070BD00BF88970020B76DDBB6A9
:10D29400153401001C4F010010B5EFF31184202355
:10D2A40083F31288BFF36F8F074A136823F00201D8
:10D2B400DB07116002D4012006F0A9F984F3118878
:10D2C400BFF36F8F10BD00BF289800202DE9F843ED
:10D2D4000022012106460520FDF7DEFB114801F07E
:10D2E4000FF9114B984219D101F01AF900244FF0AB
:10D2F4001C090C27DFF834803569414609FB0450CA
:10D3040004F099FF002807DB012307FB04551C44A4
:10D31400042CAB67F0D10020BDE8F8836FF0040063
:10D32400FAE700BF39D400000000AD0BB855010086
:10D334007FB500220123CDE9022304ABCDE90433F8
:10D34400094A6B46CDF800D0CDF804D006F059F860
:10D35400002805DB4FF480420023684602F0CEFE2D
:10D3640007B05DF804FB00BF4B3401000C22104BE6
:10D37400014602FB0033002030B4D3E91C52186785
:10D38400EFF31180202484F31288BFF36F8F9C6F16
:10D3940004F0C00444F002049C6780F31188BFF3D6
:10D3A4006F8F1DB12B4630BC0248184730BC704704
:10D3B400889700201C4F010010B4EFF31182202342
:10D3C40083F31288BFF36F8F1748016841F002049A
:10D3D4000460C80707D482F31188BFF36F8F01205C
:10D3E40010BC01F0B5B81149D1F80C04D1F80C14F3
:10D3F400C907F0D5EFF3118083F31288BFF36F8F61
:10D404000B498B6F03F0C00343F002038B6780F377
:10D414001188BFF36F8F82F31188BFF36F8F0020E1
:10D4240010BCFFF7A3BF00BF2898002000500040A5
:10D4340088970020062812D8DFE800F0040F1111A5
:10D44400110D0B00064B986F10F0070007D1FFF782
:10D454008DBF0220FBE70320F9E70120F7E77047BF
:10D46400889700202DE9F041012207463449D1E88C
:10D47400EF3FC1E8E02F0028F9D133B931493248F0
:10D484004B60CB608A6004F0E9FE7B1E012B28D838
:10D49400012F06D12D4BD3F81C3403F00303022BC8
:10D4A4001FD007F0F6F90546E8B9294B1B78D3B12C
:10D4B40002220646254BC3F80823244CDFF8948047
:10D4C400D4F81824D4F81834D20315D503F0030380
:10D4D400022B01D0012F0FD16DB386F31188BFF356
:10D4E4006F8FBDE8F081EFF31186202383F3128858
:10D4F400BFF36F8F0125E0E7C5B1304605F0E5FCC9
:10D50400D4F81835DBB2012BDAD1D4F80421002A7F
:10D51400D6D00022C4F80421D4F804210222C4F88D
:10D5240018252022C8F88021A360C9E70021212002
:10D5340003F00AFBE4E70222044BC3F80423D0E718
:10D544008497002074970020A49700200050004086
:10D554006C9A002000E100E010B5044C2046FBF773
:10D56400C5FA2046FDF748FD002010BD75D5000022
:10D5740073B5044603250F4E8DF8070001220020E1
:10D584000DF1070102F0BEFA20B1012333702046E9
:10D5940002B070BD3378002BF9D0013D08D007F0FC
:10D5A40078F90028EAD10021422003F0CDFAE5E71A
:10D5B4003570ECE76B9A0020F0B5406801F01F0469
:10D5C400057B87B044EA45140569002D63D0B2F5A4
:10D5D400001F00F1100506D12146284606F0B7F8D1
:10D5E400002007B0F0BD0027B2F5800F01AE01970F
:10D5F400776039D1B3F1007F14BF052304238DF87C
:10D6040004300023CDE904630393836823FA01F112
:10D6140011F001011AD1B2F1A07F17D104F01F0358
:10D62400620903F180032AD0012A3AD11E4A52F832
:10D634002330DB070AD40DF103063246214628467F
:10D6440001F0F8FB194B98421BD00296214628465C
:10D6540003AA01F04FFA164B98421FD1012221462A
:10D66400284601F067FCBBE7B3F1C06F05D0B3F106
:10D67400007F14BF01230223C1E70323BFE70D4A40
:10D68400D5E73146284601F049FC094B9842DCD0E5
:10D694006FF00B00A5E76FF08500A2E76FF01500AF
:10D6A4009FE751F82330FFDE002884400400AD0BCF
:10D6B4000000AD0B0025844038B545682B69B3B133
:10D6C4001035284601F010FC044680B9014628466E
:10D6D40001F0CEFB084B98420BD12246284607495D
:10D6E40001F09AFB224605212F20FDF7D5F90020F1
:10D6F40038BD6FF00400FBE70000AD0B05D7000058
:10D70400430970B507D10B4B596821B101250C6849
:10D71400094E854001B970BD8A682A4002D030465E
:10D724004B6898471CB1236821461C46F2E7234600
:10D73400FAE700BF2C980020304F01002DE9F04398
:10D7440040F206354668D00648BF0320337B02EA20
:10D75400050558BFC2F3401087B001F01F07B5F5A7
:10D76400837F144647EA43178DF8030044D00FD84B
:10D77400062D18D007D8B5B1022D3FD06FF0150093
:10D7840007B0BDE8F083B5F5807FF7D101250AE045
:10D7940040F20222954233D0B5F5407F32D0B5F540
:10D7A400007FEBD102250123220303FA01F12BD5DB
:10D7B40073689960326972BB07F01F037F0928D030
:10D7C400012F75D13C4A02EB830284F48033D2F8F2
:10D7D4000012C3F30043C4F3404444EA430421F475
:10D7E400706144EA800421F00F0144EA05230B43ED
:10D7F400C2F800320020C3E70725D4E70425D2E7A6
:10D804000525D0E70325CEE7630344BF7368D960D9
:10D81400D0E72A4AD7E71036394630460DF10202DE
:10D8240001F008FB14F4403F80460CD139463046E1
:10D8340005F08BFF224B9845DCD130469DF8021051
:10D8440001F060FBD6E74FF0000901AB39463046E2
:10D8540003AACDE90439CDE90199CDF80C9001F082
:10D8640049F9174B984289D114F4003315D09DF827
:10D87400033084F48034C4F300448DF80E30394608
:10D884004B46304603AA8DF80C508DF80D4001F03C
:10D8940027FA0B4B9842CDD070E7CDE904333946D3
:10D8A4000DF10303304603AA039301F023F9F0E7D3
:10D8B400803352F82330FFDE002884400025844062
:10D8C4000000AD0B10B504460269A2B0C2F8800096
:10D8D4001F49002001F090FB002201212A20FDF7BE
:10D8E400DBF864688422002101A807F01BFA63684E
:10D8F400B3F5803F04D30221164A174804F0E0FF31
:10D904002368B3F5803F04D30221144A124804F07B
:10D91400D7FF00230120219301AA61680432D94072
:10D92400C90744BF00FA03F142F8041C2168D94036
:10D93400C90748BF00FA03F103F1010348BFD163EB
:10D94400102BEAD101A801F06FFB002022B010BD1A
:10D954003DDA0000A36B010018520100CF6B0100F7
:10D9640038B50F290C4605693CD843681B68CB4081
:10D97400DB0737D5D5F88430CB4003F001031AB95F
:10D98400EBB96FF077002CE0002BFAD155F8213079
:10D9940023B90221154A164804F092FFD5F88430C1
:10D9A40013B92A20FDF748F80122D5F88430A240A3
:10D9B4001343C5F88430E0B201F056FB0AE0C8B264
:10D9C40001F05AFB0122D5F88430A24023EA020375
:10D9D400C5F88430D5F8843013B92A20FDF73AF815
:10D9E400002038BD6FF01500FBE700BFFB6B0100A2
:10D9F4001852010038B505460C4622B102210C4AE2
:10DA04000C4804F05DFF0F2C0ED86B685B68E34094
:10DA1400DB0709D501230020A400E4B204F180440B
:10DA240004F52834236038BD6FF01500FBE700BF10
:10DA34002B6C01001852010070B5D1F880600F28DA
:10DA440004460D46736803D81B68C340DA0704D440
:10DA540002210E4A0E4804F033FFD5F88430E34027
:10DA6400DB0704D402210B4A094804F029FF05EB23
:10DA7400840255F824503DB121463046AC46BDE8F9
:10DA840070400023126C604770BD00BF466C0100FB
:10DA940018520100626C01000123834070B5DC431D
:10DAA4000B4AD2E8EF1F01EA0405C2E8E65F002E44
:10DAB400F7D14FF4803282400648C0F80823BFF300
:10DAC4005F8FBFF36F8F0B4214BF0120002070BD26
:10DAD400C89800200050014070B40E4922F07F46DF
